:040000008031EB2838
:100008007E1480312000921E4B282100921E4B281E
:100018002200131F1128013012280030F600111F8A
:1000280017280130182800307606031D3C28FD03E8
:1000380021006F08F600F701F61BF703F609F70928
:10004800F60A0319F70A7D08F800F901F81BF90305
:100058007908803AFA007708803A7A02031D362830
:100068007608780203184928F214FD01FD0349288F
:10007800FD0A21006F08803AF6007D08803AF602F2
:1000880003184928F2140130FD00200092122000C4
:10009800121F90282100121F90282200131F562893
:1000A800013057280030F600111F5C2801305D2808
:1000B80000307606031D6E28FD0A21006F08803A7D
:1000C800F6007D08803AF60203188E28F2140130F3
:1000D800FD008E28FD0321006F08F600F701F61BCE
:1000E800F703F609F709F60A0319F70A7D08F80075
:1000F800F901F81BF9037908803AFA007708803A81
:100108007A02031D89287608780203188E28F214CB
:10011800FD01FD03200012138B1CDD288B100B1E24
:10012800DD28CF3021008C00FF308E008F00413059
:100138002000BA00FB0140080530031DFB00FB0747
:100148000B30F3004B0882314B228031FB07FC0156
:1001580005307C020318DC2823009518B0287B089A
:10016800F600F7017708F9007C087602F800031C0E
:10017800F9039100790892007C0820003A07F600FC
:10018800860087010108230093003F30950503107E
:100198008B1B03148B13151555309600AA30960047
:1001A8009514151103188B179518D828FC0AAC2834
:1001B80071142000911CE92891102E082F040319AE
:1001C800E9280130AE020030AF3B7E1009008831CB
:1001D800CB28210092121213FD01042A711FFA285C
:1001E8002030F1069F31B22780310F2A9731AD2791
:1001F80080314008013CC0001B2296316E268031B8
:100208000F2AF11A0F2A711F0B2971130F2A4008A0
:10021800013CC0009731AD2780314008013CC00047
:1002280072140F2AF11A0F2A711F23292B08C400F0
:100238002A08C3002908C2002808C1002B2944083D
:10024800AB004308AA004208A9004108A8004030B2
:10025800F1060F2A711B0F2A0310C51D0314003065
:10026800093DE600E60DE60DE60D45086606F73998
:100278006606C500451E4229013043290030E600C4
:10028800C51D4829013049290030660603195F2930
:10029800210058082000E600210059082000E70046
:1002A800E801E9016608C1026708C23B6808C33B68
:1002B8006908C43B0F2A210058082000C107210003
:1002C80059082000C23D0030C33DC43D0F2A711BB0
:1002D8000F2A0310451E03140030093DE600E60E00
:1002E80045086606EF39A9290310451F0314003095
:1002F800093DE600E60EE60DE60D45086606BF393F
:100308006606C500451B0F2ABC010F2A0310C51C31
:1003180003140030093DE600E60D45086606FD3980
:10032800A9290310451C03140030093DE6004506C1
:10033800FE39A9290310C51E03140030093DE60043
:10034800E60EE60D45086606DF396606C5000F2A83
:10035800711B0F2A9731922780311B229731AD27C5
:1003680080314B08031DBB290930CB00BF294B083E
:100378000319BF29CB039731922780319631F7268D
:1003880080310129711B0F2A9731922780311B2256
:100398009731AD2780310A30CB0A4B02031CBF29A5
:1003A800CB01BF29711B0F2A00309E3104268031F2
:1003B800BC30CF008330D0009F314B278031403094
:1003C8009E31042680313430CF008330D0009F31F5
:1003D8004B2780319A314C2280310D304A02031864
:1003E800EE290A304A06031DFC2998311220803173
:1003F800023020004A06031D0F2A1030F0060F2A8B
:1004080020004A0884000D30040203180F2A8231A4
:1004180004356E3E82009A318E228031973118273A
:10042800F2149212121321009216121708002300D8
:1004380095181B2A20004B08CC000B30CD01CE00AC
:10044800CF019A31372280314C080B3ED200003060
:100458004D3DD3005208230091002000530823008B
:10046800920020004008230093003F3095050310B8
:100478008B1B03148B13151555309600AA30960064
:100488009514151103188B179518482A0800F500BC
:10049800F40173087518F407F3357308F518F407B1
:1004A800F33573087519F407F3357308F519F4076C
:1004B800F3357308751AF407F3357308F51AF4075A
:1004C800F3357308751BF407F3357308F51BF40748
:1004D800740808008131D6298031F2288131052934
:1004E8008131162981312E2981316B298131782971
:1004F80081318A298131952981319E298131AC291F
:1005080082310F2A8131C6295234D2342034203422
:100518002034203420342034203420342034203433
:1005280020342034203420342034203400347034F3
:10053800773472342034203420342034203420346A
:100548002034203420342034203420342034003423
:10055800563461346C34203464346934763420344D
:1005680020342034203420342034203420342034E3
:1005780000347034723465342034543458342034A0
:100588006F346634663420342034203420342034E8
:100598002034003443345734203473346834693495
:1005A800663474342034543458342034203420349D
:1005B800203420340034433472347934733474343E
:1005C80061346C3420344334613470342034203442
:1005D8002034203420340034553461346434633496
:1005E800203420342034203476342C342034203401
:1005F80073342034203420340034563461346C345D
:100608002034553420347234653466342034203430
:1006180020342034763420342034003446342034D6
:100628006F347534743420346D3475346C347434E8
:10063800693470346C3479342034203400345634BE
:1006480061346C3420347334743465347034203439
:1006580020342034203448347A3420342034003490
:100668004E3465347834743420342A3420342034B9
:100678002034203420344534533443342034233454
:1006880000344E3465347834743420342A342034B9
:100698002034533465346C34653463347434203412
:1006A80023340034203420342034203420342034BF
:1006B80020342034203420342034533465347434C6
:1006C8002034233400344234733420342A34203420
:1006D80020342034203420342034203453346534FA
:1006E8007434203423340034423461346E34643436
:1006F800203420342034203420342034203453341F
:100708006534743420342334003443346834613419
:100718006E346734653420342A342034203420344D
:1007280053346534743420342334003445347334FA
:10073800633420342A3420342034203420342034C4
:100748004E346534783474342034233400344334DC
:10075800683461346E346734653420342A34203484
:1007680020344E34653478347434203423340034DF
:100778004C346F3463346B342034323420342034B6
:10078800203420345334653474342E342E342E34CB
:1007980000344634203456346C34633420344234C4
:1007A8004C34203449346F34203453346D3420347D
:1007B80051340034533465347434203470346F3415
:1007C80072347434733420346C346534763465345C
:1007D8006C347334003461347434743420347034B9
:1007E80072346534203466346C34743420346334A1
:1007F8007734203475340034433457342034733418
:100808006834693466347434203420342034203415
:100818002034203448347A3400345334693435343D
:1008280033343534313461342034613464346434DD
:100838007234203420342034003454345834203472
:100848002034203420342034203420342034203400
:100858002034003458344F34203446342034203483
:10086800003444346F3477346E3420342034003408
:100878002034203452345834203400346400800149
:100888000131890B432C003420344834203420347F
:10089800003420344C3420342034003466343D3461
:1008A80046342034003470347234653420340034D3
:1008B80073347734723420340034723469347434C5
:1008C800203400347834693474342034003461348A
:1008D8007434743420340034203473347334623400
:1008E80000342334733473346234003420342034B5
:1008F8006334773400342334203463347734003459
:1009080020344C34203400343E3431343034003414
:100918002B343634303400344F34463446340034C3
:1009280020344F344E340034363430346834003494
:10093800363432346834003436344634683400345B
:10094800C034C434DE344834493400344C344F3471
:10095800003420346C3400342E346C3400342E349B
:10096800753400342B340034483400344C340034AB
:101196002030F001F101F201FB01FC01FD018400A8
:1011A600003085002C30843142248831A030840000
:1011B600003085005030843142248831203084004C
:1011C6000130850050308431422488317E10200061
:1011D600EC289431ED2488312000EC010B1D1129F7
:1011E6003F0895000B110630F115EC0A6C02031C42
:1011F6001829EC01711D1829003071119E31042641
:1012060088314408C9004308C8004208C70041089D
:10121600C60084309B313F2388311829F11D1829D7
:10122600F111451F182905228831F21C2129472171
:10123600883195278831F2107115432920008C1DBD
:101246002629F01D2A299831702088314329711CDE
:1012560039298B1388307110CC001330CD009B31A7
:10126600292388319431ED24883143299A314C223F
:1012760088310D304A02031843298031ED20883128
:1012860090310B208831F1288B13701A4E297D0876
:101296002000DC0050292000DC01FD018B17210015
:1012A6006B082000DD00DE01DF01E0012E082F04BF
:1012B600031D63296430AE00AF01AC01AD016629A0
:1012C600AC0A0319AD0A00302D020A3003192C02AC
:1012D600031C84296430CC00CD01CE01CF01600807
:1012E600D3005F08D2005E08D1005D08D000042755
:1012F60088314F08E0004E08DF004D08DE004C083C
:10130600DD005C08CC008039031DFF30CD00CE0027
:10131600CF006008D3005F08D2005E08D1005D08E8
:10132600D000042788314F08E0004E08DF004D0842
:10133600DE004C08DD00C1075E08C23D5F08C33D04
:101346006008C43D4B08090709070907243E8600C3
:1013560001308700403FD800413FD900423FDA00C4
:10136600433FDB004402031DC2295A084302031D02
:10137600C22959084202031DC229580841024B08D6
:101386000318D529090709070907243E86000130F5
:101396008700403FC100413FC200423FC300433F78
:1013A600C4004B08090709070907203E86000130DB
:1013B6008700403FD800413FD900423FDA00433F13
:1013C600DB0044085B02031DF22943085A02031D91
:1013D600F22942085902031DF2294108580203184E
:1013E60008004B08090709070907203E8600013057
:1013F6008700403FC100413FC200423FC300433F18
:10140600C40008003E08031D182A9D3021009D00D7
:1014160020001430B8017011BE01BE0AD200D203FA
:10142600520F122A21009D14080021001C082000DA
:1014360038020318222A21001C082000B8002100C7
:101446009D14643020003E02031C2E2A3808B90081
:10145600B8017015BE01701D672A3E08DA3E860087
:101466008701010839020318562A4D309E31042699
:1014760088310A303E0203184C2A9830CF00823059
:10148600D0009F314B2788313E08E72388313E350F
:10149600652A2B309F319D2788313E08F73EE7238A
:1014A60088310030482A0E303E02031C672A4D3030
:1014B6009E31042688318C30CF008430D0009F3195
:1014C6004B271E30BC007011BE0A08009530210063
:1014D6009D0014302000DB00DB035B0A031D6F2A2E
:1014E60021009D149D18752A1B082000E10021008B
:1014F6001C082000E200993021009D0014302000D5
:10150600DC00DC035C0A031D842A21009D149D185F
:101516008A2A1B082000DF0021001C082000E000AA
:10152600711E362B00306202333003196102031C30
:101536000C2B62086002031DA22A61085F020318D1
:101546000C2B5F086107D2006008623DD300620879
:10155600CD006108CC005F08CC026008CD3B0E30A0
:10156600CE00CF019A31372288314D08D5004C087C
:10157600D400A42388315308DE005208DD004A3027
:10158600D200D3016208D5006108D400A423530811
:10159600DA005208D90003309E3104268831E10171
:1015A600E201003062020D30031961020318ED2AD0
:1015B6005E086202031DE12A5D0861020318E52A3E
:1015C6002D30E62A20309F319D278831E10A031904
:1015D600E20AD42A43309E3104268831E101E20131
:1015E600003062020D3003196102031808005A0820
:1015F6006202031D002B590861020318042B2D30CB
:10160600052B20309F319D278831E10A0319E20A14
:10161600F32A03309E3104268831E101E2010030CD
:1016260062020D30031961020318212B20309F310D
:101636009D278831E10A0319E20A122B43309E31B5
:1016460004268831E101E201003062020D300319FF
:1016560061020318080020309F319D278831E10A76
:101666000319E20A272B62083502031D3C2B610889
:1016760034020318422B6208B5006108B400600802
:101686003302031D482B5F08320203184E2B6008F5
:10169600B3005F08B200C930BE0A3E02031C080050
:1016A60000303502333003193402031C9E2B3508F3
:1016B6003302031D602B3408320203189E2B3508B3
:1016C600D3003408D2003208D2023308D33B3208A2
:1016D6003407CC003308353DCD000A30CE00CF01AB
:1016E6009A31372288314D08D5004C08D400A423FE
:1016F6005308DE005208DD0049309E310426883149
:101706005C30CF008430D0009F314B2788310030C9
:101716005E02643003195D020318962B5D08C92327
:1017260088315D089D2B8830CF008430D0009F31F2
:101736004B276330BC00B401B501B201B301BE0151
:101746000800D601D701520853040319C42BD80147
:10175600D80AD31BB12BD235D30DAB2BD635D70D2B
:1017660053085502031DB92B52085402031CC02B03
:101776005208D4025308D53B5614D336D20CD80B94
:10178600B12B5708D3005608D2000800CF00083006
:10179600D101D0003330D107D119D32B0330D10278
:1017A600D11BD72B3030D102D135CF1B5114CF35B9
:1017B600D00BCD2B510E0F39E7232E309F319D27AD
:1017C600883151080F39E72BCC003230CD00CD03DC
:1017D6004D0FEA2B06308D008F178F134C358D0079
:1017E6008F178F138D01080040309E3104268831F3
:1017F6007830CF008330D0009F314B278831E40109
:10180600E301E30A45309E31042688316408E72364
:1018160000309E310426883163080319292C35309F
:10182600CF008430D0009F314B27883164080907E8
:1018360009070907243E860001308700403FA800BB
:10184600413FA900423FAA00433F3F2C0030CF0052
:101856009030D0009F314B2788316408090709076B
:101866000907203E860001308700403FA800413F1F
:10187600A900423FAA00433FAB0006304B26883101
:101886002B08031D4E2C403028024230293B0F30D6
:101896002A3B031C7C2CC13028020530293BD93059
:1018A6002A3B01302B3B03187C2C630803196C2C54
:1018B6006408090709070907243E860001308700E6
:1018C6002808C03F2908C13F2A08C23F2B08C33F4A
:1018D6007C2C6408090709070907203E86000130A9
:1018E60087002808C03F2908C13F2A08C23F2B08A5
:1018F600C33FE303630F052C6408090709070907BB
:10190600243E860001308700403FDB00413FDC007B
:10191600423FDD00433FDE00640809070907090767
:10192600203E8600403FDF00413FE000423FE100AD
:10193600433FE2005E086202031DAB2C5D086102B4
:10194600031DAB2C5C086002031DAB2C5B085F0219
:1019560064080318CC2C090709070907243E8600EA
:1019660001308700403FDB00413FDC00423FDD00A5
:10197600433FDE006408090709070907203E860081
:101986005B08C03F5C08C13F5D08C23F5E08C33FBD
:101996006408E40ADB0009305B02031C032C0030F8
:1019A6009E31042688318A30CF008230D0009F31A4
:1019B6004B278831682F4908CF004808CE004708D2
:1019C600CD004608CC003530D300A430D200E93033
:1019D600D100D001292788314D08E3004C08E200E8
:1019E600621031086306031DFA2C300862060319DB
:1019F6003B2D6308B1006208B000F1146208DE00F6
:101A06006308DF00E001E1015E08D9005F08DA0043
:101A16006008DB006108DC000730D935DA0DDB0D24
:101A2600DC0D890B102D5C08E7005B08E6005A0800
:101A3600E5005908E4000030E407FE30E53DFF30DC
:101A4600E63DE73D6608CC000330CC052C309631E8
:101A56002726883120006508CC002D3096312726B0
:101A6600883120006408CC002E3096312726883134
:101A760020006208CC006308CD00CE01CF014908E2
:101A8600D3004808D2004708D1004608D0000427F2
:101A960088314F08E7004E08E6004D08E5004C087F
:101AA600E400210057082000CF002100560820003E
:101AB600CE00210055082000CD002100540820004A
:101AC600CC006708D3006608D2006508D100640818
:101AD600D000292788314F08E1004E08E0004D0864
:101AE600DF004C08DE00210057082000CF0021004F
:101AF60056082000CE00210055082000CD00210008
:101B060054082000CC006108D3006008D2005F08AA
:101B1600D1005E08D000042788314C08E4024D0845
:101B2600E53B4E08E63B4F08E73B1430C601C701CC
:101B3600C801C901DD00D02DC635C70DC80DC90DB8
:101B4600E435E50DE60DE70D210057082000670294
:101B5600031DBD2D2100560820006602031DBD2D64
:101B66002100550820006502031DBD2D21005408E3
:101B760020006402031CD02D210054082000E4023A
:101B8600210055082000E53B210056082000E63BD1
:101B9600210057082000E73B4614DD035D0F9F2D0B
:101BA6005E08D9005F08DA006008DB006108DC0027
:101BB6000730D935DA0DDB0DDC0D890BDC2D5C0821
:101BC600E7005B08E6005A08E5005908E400460805
:101BD600D9004708DA004808DB004908DC000D3068
:101BE600DC36DB0CDA0CD90C890BF32D5908E4042E
:101BF6005A08E5045B08E6045C08E7040030E407DD
:101C0600FE30E53DFF30E63DE73D6608CC001C3082
:101C160096312726883120006508CC001D30963184
:101C26002726883120006408CC001E3096312726EE
:101C3600883120004608E4001F304705E5000030E3
:101C4600E6014905E7000730E435E50DE60DE70D49
:101C5600890B272E6608F038CC001F3096312726D0
:101C6600883120006508CC0020309631272688313F
:101C760020006408CC002130963127268831F11CDB
:101C860008002030F1102000CC00B1309631272E0C
:101C9600D8009E31042688312B08C9002A08C800BE
:101CA6002908C7002808C6008C309B313F2388319D
:101CB600DA01D9015908C83E86000830870181013A
:101CC600D90A5902031C5D2E58089E310426883114
:101CD60001309A31842288319A314C2288310D3074
:101CE6004A0203186F2E0C304A060319012F0A30D8
:101CF6004A06031D902E5A080319902E07305A06DD
:101D0600031D8A2E5A08C83E860087018101DA0320
:101D16005A08C83E8600870181010A304A02031824
:101D26009E2E5A08C83E860087014A088100073061
:101D36005A02031CDA0AA801A901AA01AB01D901BA
:101D46000A30CC00CD01CE01CF012B08D3002A08E2
:101D5600D2002908D1002808D000042788314F086E
:101D6600AB004E08AA004D08A9004C08A800590867
:101D7600C83E860087010108A80701300318A90795
:101D86000318AA070318AB070830D90A5902031C1F
:101D9600A32E58089E31042688312B08C9002A082C
:101DA600C8002908C7002808C6008C309B313F238D
:101DB600883102305A020318E62E58085A079E3117
:101DC600042688316F2E05305A020318F12E580862
:101DD6005A07013E9E31042688316F2E08305A027A
:101DE60058080318FC2E5A07023E9E3104268831F5
:101DF6006F2E093E9E31042688316F2E00309A31AF
:101E0600842AD401D501D601D7014C1C122F5008C3
:101E1600D4075108D53D5208D63D5308D73DD03595
:101E2600D10DD20DD30DCF36CE0CCD0CCC0C4F0828
:101E36004E044D044C04031D082F5708CF005608C6
:101E4600CE005508CD005408CC000800D401D501B9
:101E5600D601D7014F084E044D044C0403195F2FD9
:101E6600D801D80ACF1B3C2FCC35CD0DCE0DCF0DCA
:101E7600342FD435D50DD60DD70D4F085302031D7B
:101E86004E2F4E085202031D4E2F4D085102031DC0
:101E96004E2F4C085002031C592F4C08D0024D08F7
:101EA600D13B4E08D23B4F08D33B5414CF36CE0C11
:101EB600CD0CCC0CD80B3C2F5708CF005608CE00C3
:101EC6005508CD005408CC0008002030CD00CE01C6
:101ED600230095186B2F20004E09230091009201D4
:101EE60020004E084D07CC0086000130870001080F
:101EF600230093003F30950503108B1B03148B13AF
:101F0600151555309600AA3096009514151103182C
:101F16008B1795188C2F20005030CE0A4E020318CE
:101F260008006B2F2100530820004406031DAB2F29
:101F36002100520820004306031DAB2F2100510843
:101F460020004206031DAB2F210050082000410649
:101F56000319080044082100D3002000430821008B
:101F6600D200200042082100D100200041082100B3
:101F7600D00020004408C9004308C8004208C70032
:101F86004108C6004408C9004308C8004208C70003
:101F96004108C6002100EE1ED22FF11BF52F2000AE
:101FA600C51DF52F451EEA2F210058082000E80020
:101FB600210059082000E900EA01EB016808C60281
:101FC6006908C73B6A08C83B6B08C93BF52F210067
:101FD60058082000C607210059082000C73D0030D8
:101FE600C83DC93D2100690A2000FD2FC635C70D31
:101FF600C80DC90D890BF92FDE2C553470342034E9
:102006002034203420340034203448342034003442
:10201600FB279031003A031917283D08A03E860099
:102026008701F2279031810020003D08A03E8600FE
:102036006130870101023D08031C2D28A03E860061
:102046007B3001023D0803182D28A03E8600203073
:1020560081023D08A03E860087010108031DBD0AD6
:102066003D089F3E86003B3001060319F0172830D5
:102076003D02031C4A28BD01E0016008A03E86001F
:10208600283087018101E00A6002031C4028F01F06
:102096000800423021002006031D74284430210622
:1020A6000319592855302106031D742892278231B9
:1020B6001B229031AD27903121002308D03E20000D
:1020C600CB000A304B020318CB0192279031F7263A
:1020D60090316E269A318E22903118279031F21463
:1020E600D52C49302006031DF72846302106031D4E
:1020F600F72849307017E52490314630E5249031B1
:102106003030E52490313030E52490313030E5240C
:1021160020004408C9004308C8004208C700410817
:10212600C60088309B313F2390312030E524903122
:102136002030E52490312030E52490312030E5240C
:1021460090312030E52490312B30E5249031303029
:10215600E52490313030E52490313030E52490315B
:102166003030E5249031711FBA283130BB28303029
:10217600E5249031F11EC1283130C2283030E524E3
:1021860090313030E52490313030E52490313030D4
:10219600E524903120008C1DD228F01DD428313042
:1021A600D5283030E52490312000C51DE028451E95
:1021B600DE283330E5283730E528451EE42832305E
:1021C600E5283130E52490313030E5249031303047
:1021D600E52490313030E52490313030E5249031DB
:1021E6003030E52490316D2A43302006031D09293D
:1021F60048302106031D092930302206031D062911
:102206000130FD007228FD01FD03722846302006CC
:10221600031D2F294C302106031D2F293B30220692
:10222600031D21294630E52490314C30E5249031B8
:102236002000450E890C0139313ED02C3130220662
:10224600031D27292000C512323021002206031D56
:102256006D282000C5166D2846302006031D44292A
:1022660056302106031D44294630E5249031563068
:10227600E52490313130E52490312E30E52490313B
:10228600382A4D302006031D812944302106031DBE
:1022960081293B302206031D63294D30E524903108
:1022A6004430E52490312000C51D5F29451E5D2977
:1022B6003330D02C3730D02C451E142A3230D02C57
:1022C6003130220603196B2936302206031D6E298A
:1022D6002000C5117B2933302206031D75292000F5
:1022E600C5157F2937302206031D7D292000C51517
:1022F60045126D282000C51145166D285030200660
:10230600031DA12941302106031DA1293B302206C8
:10231600031D97295030E52490314130E524903152
:102326002000C51C6D2A382A31302206031D9E293D
:102336002000C5146D282000C5106D2852302006D7
:10234600031DC92941302106031DC9293B30220638
:10235600031DBF295230E52490314130E5249031E8
:102366003030E52490312000451CBB293130BC2992
:102376003030E52490316D2A31302306031DC629FD
:10238600200045146D28200045106D285230200687
:10239600031D002A54302106031D002A3B30220665
:1023A600031DDE295230E52490315430E524903166
:1023B600711F702A142AF11AD52C31302206031DFA
:1023C600EF29711720004408AB004308AA00420811
:1023D600A9004108A800F929711320002B08C400A0
:1023E6002A08C3002908C2002808C1009A318E2293
:1023F600903118279031FD01722858302006031DB0
:10240600242A54302106031D242A3B302206031DAC
:10241600162A5830E52490315430E5249031F11EC7
:10242600702A3130D02C711FD52C31302206031D75
:102436001E2AF1161F2AF112FD019F31B227903193
:102446006D284C302006031D482A4B302106031DFB
:10245600482A3B302206031D3A2A4C30E5249031A7
:102466004B30E5249031701E6D2A31306E2A3030A3
:102476002206031D402A7012442A3130220603190F
:1024860070169A318E229031D52C53302006031DBA
:10249600722A4D302106031D722A5330E5249031ED
:1024A6004D30E52490313030E52490313030E5244C
:1024B60090313030E524903170172000451F6D2A89
:1024C6003C08C6002830C701C801C9019B313F231B
:1024D6009031D22C3030E52490313030D02C52302F
:1024E6002006031D982A4D302106031D982A3B30ED
:1024F6002206031DD52C5230E52490314D30E524BB
:1025060090313130E52490313030E524903130304F
:10251600E524701720003C08C6002830C701C80112
:10252600C9019B313F239031D22C52302006031D26
:10253600A22A58302106031DA22AF011D52C5430A8
:102546002006031DAC2A58302106031DAC2AF015BF
:10255600D52C45302006031DAB2B58302106031D14
:10256600AB2B20000230C601C701C801C901F01219
:10257600E100053061020318092B6108A03E8600C0
:102586002A3087010102031C032B6108A03E860046
:10259600403001020318032B6108A03E86000108A3
:1025A600D03ED900FF3003180030DA005908DB00AE
:1025B6005A08DC000030DC1BFF30DD00DE00490875
:1025C600CF004808CE004708CD004608CC000A30A8
:1025D600D000D101D201D3018F31042790314C08AC
:1025E600DB074D08DC3D4E08DD3D4F08DE3D5E084D
:1025F600C9005D08C8005C08C7005B08C600042B5C
:10260600F0160530E10A6102031CC02AF01AA82B55
:102616004608BB003B3021002506031D352B4530FF
:10262600E52490315830E524383070179B313F232C
:1026360090313B082300910092013F309505151417
:1026460013082000C600C701C801C90123001518D8
:10265600292B383070179B313F2390313B30E524CE
:102666009031A82B20000530C601C701C801C90159
:10267600E200083062020318892B6208A03E860039
:102686002A3087010102031C832B6208A03E8600C4
:10269600403001020318832B6208A03E8600010821
:1026A600D03ED900FF3003180030DA005908DB00AD
:1026B6005A08DC000030DC1BFF30DD00DE00490874
:1026C600CF004808CE004708CD004608CC000A30A7
:1026D600D000D101D201D3018F31042790314C08AB
:1026E600DB074D08DC3D4E08DD3D4F08DE3D5E084C
:1026F600C9005D08C8005C08C7005B08C600842BDB
:10270600F0160830E20A6202031C402BF01AA82BCE
:10271600230095188B2B20003B0823009100920183
:1027260020004608230093003F30950503108B1BBD
:1027360003148B13151555309600AA309600951480
:10274600151103188B179518A62BF01ED52CBF2C28
:1027560046302006031DC12C413021060319B72B34
:1027660042302106031DC12C3B302206031DD92B06
:1027760046307017E524903121002108E524903178
:102786003030E52490313030E52490313030E52486
:1027960020004408C9004308C8004208C700410891
:1027A600C60088309B313F239031D22C20009830D0
:1027B600C601C701C801C901A701A6009630A50038
:1027C6008030A4000530F012E3000D3063020318D8
:1027D6003C2C6308A03E86002A3087010102031CB8
:1027E600362C6308A03E8600403001020318362CC2
:1027F6006308A03E86000108D03ECC00FF300318D7
:102806000030CD00CE01CD1BCE034E08CF002708E9
:10281600D3002608D2002508D1002408D0008F3125
:10282600042790314C08C6074D08C73D4E08C83DE1
:102836004F08C93D0A30CC00CD01CE01CF01270893
:10284600D3002608D2002508D1002408D0008F31F5
:10285600292790314F08A7004E08A6004D08A5006D
:102866004C08A400372CF0160D30E30A6302031C53
:10287600EC2BF01ABF2C711BD52CFD014908031D4A
:102886004C2C403046024230473B0F30483B031C3D
:10289600D52C81304602C330473BC930483B013016
:1028A600493B0318D52C4908C4004808C30047080B
:1028B600C2004608C100FF30CB00E40109306402C3
:1028C6000318A82C6408090709070907243E86008F
:1028D60001308700403FD900413FDA00423FDB002C
:1028E600433FDC004402031D822C5B084302031DA8
:1028F600822C5A084202031D822C59084102031CED
:10290600A62C6408090709070907203E860001303E
:102916008700403FD900413FDA00423FDB00433F9A
:10292600DC0044085C02031DA22C43085B02031D65
:10293600A22C42085A02031DA22C41085902031C6C
:10294600A62C6408CB00E40A612C4B0FAC2C093092
:10295600CB002300910192013F309505151420000C
:102966004B082300130603196D28922782311B2278
:102976009031AD27903168284530D02C5330200651
:10298600031DCF2C52302106031DCF2C31302206D9
:10299600031DD52C0100D52C3F30E52490313B306A
:1029A600E52490312000DF013D085F020318E22C88
:1029B6005F08A03E860087018101DF0AD72CBD0192
:1029C600F01308002000CC00111EE72C4C08230051
:1029D6009A0008007030210099000F308C00E13019
:1029E6008D00F8308E008F01073090009513083067
:1029F60024008C00E0308D008E018F0190012300B1
:102A06008C018D018F0107309000A03022009800C4
:102A1600B23091009300E8309200E9309400210032
:102A26009E010330240092009401283095009601FF
:102A36002000BE01D3269031C830B600B701370852
:102A4600D7003608D600D736D60C5608FF3ABF0050
:102A560021006A0EF03922009900C62690310A300C
:102A660020004B02031C392D0930CB00F72690318C
:102A76000230200040020318C0016E269031512614
:102A860090318B122100951295111510951415157C
:102A96001827C830CC00CD019B31292390310F1364
:102AA6008F130530CC00CD019B31292390310630A0
:102AB6008D008F178F130530CC00CD019B31292354
:102AC60090318F178F13CC01CC0ACD019B3129236E
:102AD60090318F178F13CC01CC0ACD019B3129235E
:102AE600903104308D008F178F130530CC00CD0147
:102AF6009B312923903128309F319D2790310C300E
:102B06009F319D27903101309F319D2790310530AF
:102B1600CC00CD019B31292390310F1706309F3110
:102B26009D279031C830CC00CD019B3129239031AF
:102B36009A318E229031F830CC000330272690311E
:102B460020000F30CC01272690314F302000CC00DA
:102B5600103027269031EC302000CC00113027268B
:102B66009031C0302000CC00123027269031200052
:102B76001830CC0127269031FF302000CC001A30C7
:102B860027269031FF302000CC001B3027269031BD
:102B9600FF302000CC00223027269031FF30200065
:102BA600CC0023302726903120002A30CC0127265E
:102BB600903120002B30CC01CC0A27269031200002
:102BC6002F30CC012726903120003030CC0127262B
:102BD600903120003130CC012726903120009530ED
:102BE600CC0127269031A0302000CC00B13027261A
:102BF600903121006D082000CC00B7302726903197
:102C06002000BB30CC01272690317C3020009B0071
:102C160006309C009A01911092121213210092160E
:102C2600121715138B1091140B160B178B17F11324
:102C3600F21471102000B001B101FD012100D00194
:102C4600D101D201D301852FCD00240016081F39EA
:102C560003191419282E161416081F3903191419E6
:102C66002F2E21006C082400910016081F39031925
:102C76001419382E20004D082400910016081F391B
:102C860003191419412E20004C082400910016083F
:102C96001F39031914194A2E161508002030CD00C5
:102CA600CE014E092300910092013F30950515147F
:102CB60020004E084D07CC00860001308700230017
:102CC600130881001518652E20005030CE0A4E02DA
:102CD60003180800542E20004130D401D3004008C8
:102CE6000530031DD400D4070B30CC004B08A326B7
:102CF6009031D407D5015408CF00D0015008D20036
:102D060055084F02D100031CD20323009100200076
:102D16005208230092003F309505151420005508EF
:102D26005307CF008600870123001308810015187A
:102D36009A2E20000530D50A5502031808007E2E6B
:102D4600CE00CD014C084E18CD07CC354C08CE1818
:102D5600CD07CC354C084E19CD07CC354C08CE19CD
:102D6600CD07CC354C084E1ACD07CC354C08CE1ABB
:102D7600CD07CC354C084E1BCD07CC354C08CE1BA9
:102D8600CD074D0808002300910192013F309505BB
:102D9600151413082000CB0023001518CF2E0800A9
:102DA600D430CE00CF01CD014F08973CCC00031C98
:102DB600CD032300910020004D08230092003F30F0
:102DC6009505151420004F084E07CC008600870194
:102DD6002300130881001518EE2E20001C30CF0AA0
:102DE6004F0203180800D62E20004B08CC000B30EB
:102DF600CD01CE00CF019A31372290314C080B3EDF
:102E0600D20000304D3DD30052082300910020002F
:102E16005308230092003F3095051514130820002F
:102E2600C00023001518142F080020004B1C1E2F6D
:102E360020008E14202F20008E10CB1C252F200062
:102E46000E15272F20000E114B1D2C2F20000F14BE
:102E56002E2F20000F10CB1D332F20008F14352F5F
:102E660020008F10451C3B2F21006E1C3E2F412F4A
:102E760021006E1C412F20000F16432F20000F1239
:102E8600451E492F21006E1E4C2F4F2F21006E1E0E
:102E96004F2F20008C17512F20008C13C51D572F44
:102EA6002100EE1D5A2F5D2F2100EE1D5D2F200003
:102EB6000C175F2F20000C13C51E652F21006E1DF9
:102EC600682F6B2F21006E1D6B2F20000E146D2FA7
:102ED60020000E10C51C7C2F2100EE1F742FF11B45
:102EE6007C2FEE18792F20008F16080020008F12F5
:102EF60008002100EE1C822F20008F1608002000FB
:102F06008F120800243023009E0090309D00083068
:102F16009F001D121D1622309B009C0108002300F5
:102F26009518922F9101920120004B0823009300DF
:102F36003F30950503108B1B03148B131515553065
:102F46009600AA3096009514151103188B1795183C
:102F5600AA2F080020004130D401D30040080530D4
:102F6600031DD400D4070B30CC004B08A3269031A8
:102F7600D407D50123009518BD2F20005408CF0093
:102F8600D0015008D20055084F02D100031CD203CD
:102F960023009100200052082300920020005508CB
:102FA6005307CF00860087010108230093003F30B6
:102FB600950503108B1B03148B13151555309600BE
:102FC600AA3096009514151103188B179518E92F3A
:102FD60020000530D50A550203180800BD2F911EA2
:102FE600F22F23009D1CF92F1D121D16190808002B
:102FF60000302000911A01300800743477346634AA
:10300600203420342034203420342034203420341A
:0C301600203420342034203420340034D6
:10302400E501003004269831CD30CF008330D00044
:103034004B2798314030042698314530CF008330F7
:10304400D0004B279831013084229831650804263A
:10305400983130280A304A06031936284C22983110
:103064000C304A06031D2C280A304A06031D40284A
:103074000330E507103065020318E5010C304A06F9
:10308400031D28280030842298316508031D4D282B
:103094000B269831692803306506031D5428C5237F
:1030A4009831692806306506031D5C288B31F723A7
:1030B4009831692809306506031D6328AA249831CC
:1030C40069280C306506031D69280F2198310F30DB
:1030D4006506031D1328CC279431ED2C2100921290
:1030E400121320000F15F1178F15FD01BC01973144
:1030F40018279831711F7F28B2278F31952798316F
:103104000030042698314408C9004308C800420826
:10311400C7004108C60084303F2398318E2298317D
:103124003230CC00CD01292321009E1720005430D9
:10313400BE01B401B501B201B30171129431E524A9
:10314400983158309431E524983130309431E52465
:1031540098313B309431E524983120008C19E928CA
:1031640090310B2098314C2298314A0BE0281030D2
:10317400F106711ED0280030042698310030CF00AB
:103184009830D0004B2798314030042698319B303A
:10319400CF008230D0004B279831E028003004263D
:1031A40098314408C9004308C8004208C7004108D0
:1031B400C60084303F2398318E2298310B1DAF28EE
:1031C4003F0895000B118A3169229831AF28F01914
:1031D400B228BE01711FEF28B2270F11F1138F110E
:1031E4008F319527983120003F0895000B11F21478
:1031F4009731182798318E229212121321009216B9
:1032040012179E1352309431E5249831583094317A
:10321400E52498313B309431E52C9D3021009D000C
:10322400003004269831F030CF008230D0004B2794
:1032340098314030042698319A30CF008330D00042
:103244004B279831DA0121009D149D1827290F304E
:103254002000D200D30121001C082000CC00133030
:10326400CD01CE00CF01372298314D08D5004C084E
:10327400D4005D2798315208C6005308C700890D51
:10328400893B8909C800C9000430042698313B30C1
:103294003F2398310D300426983109305A0203181F
:1032A4005C299830CF008230D0004B2798315A08DF
:1032B400013E6729B630CF008430D0004B275A082E
:1032C400F83E8B31E723983100308B31E723983176
:1032D4004C2298310A304A06031908000C304A0679
:1032E400031D86294030042698319530CF00823062
:1032F400D0004B2798315A08DA3E86008701210016
:103304001C0881002000DA0A0F305A020318080052
:1033140025290030042698310030CF008430D000B5
:103324004B2798314030042698315630CF008330F3
:10333400D0004B2798310130D501842298310A30CE
:103344004A020318CB295508031DBA294A08CC00A0
:103354006430CD01CE00CF01372298314D082100D1
:10336400D90020004C082100D8002000D50ACB2920
:103374004A08CC000A30CD01CE00CF013722983163
:103384004C082100D80720004D082100D93D200019
:10339400D5030B3004269831210058082000C600BC
:1033A400210059082000C7003830C801C9013F2353
:1033B400983155080B3E042698314C2298310D3033
:1033C4004A020318DF290C304A06031DA1290030E4
:1033D40084229831003004269831CE30CF008230D8
:1033E400D0004B2798314030042698318930CF00E3
:1033F4008330D0004B2798310D30042698312100BA
:10340400EE1E092A94302000CF0084300D2A90301B
:103414002000CF008430D0004B279831152A0A3081
:103424004A0603191B2A4C2298310C304A06031D04
:10343400112A0A304A06031D312A03102100EE1E08
:1034440003140030093D2000D400D40ED40D210013
:103454006E0820005406DF3954062100EE000C30BB
:1034640020004A0603190800FE29D001D1014C1C92
:103474003F2A4E08D0074F08D13DCE35CF0DCD366B
:10348400CC0C4C084D04031D392A5108CD005008BA
:10349400CC000800E0300D05D000E03A0D30031DEB
:1034A400552ACA0008004A0603195B2A0E30CA00CE
:1034B4000800FD308D003230CC00CD012923983135
:1034C4002030CA01CA0AD200762A80305206031D6F
:1034D4006F2A03148D0D1030D2000A30CA0AD100AD
:1034E400D103510F722AD2350D08520503197E2AD1
:1034F4000D304A02031C672A0B304A060319CA011D
:103504008D010800D0000F130C3E9D2798310F1732
:10351400CC01CC0ACD01292B0A3004269831701E27
:103524009D2AC51D992A7F30CF008430A62A753084
:10353400CF008430A62AC51DA32A7A30CF00843058
:10354400A62A7030CF008430D0004B279831C51E96
:10355400B52A451EB12AB330CF008430BE2AB0301C
:10356400CF008430BE2A451EBB2AFD30CF008330F5
:10357400BE2AAD30CF008430D0004B279831F11FE4
:10358400DE2A403004269831711BF11ACD2A6130AD
:10359400CF008430D62AF11ED32A6630CF0084307F
:1035A400D62A9630CF008230D0004B279831213074
:1035B400CF008430D0004B2F721CF02A40300426F8
:1035C40098315230CF008430D0004B279831BC3032
:1035D400CC000230CD0029239831721040300426EB
:1035E4009831F11EF92A6630CF008430022B711F06
:1035F400FF2A6130CF008430022B9630CF00823016
:10360400D0004B279831C51C0B2B5730CF0084308A
:103614000E2B9630CF008230D0004B279831451CBA
:10362400172B6B30CF0084301A2B9630CF008230AA
:10363400D0004B279831451F242BFC30CF0082301B
:10364400D0004B2F3C30CF008430D0004B2F3708B4
:10365400CF003608CE000130CE020030CF3B4E0FF3
:103664002D2B4F0A0130031D2E2BCC020030CD3BF5
:103674004C084D0403190800292B2000D300A00195
:10368400A101A201A301D0000730D005D31D4C2B0A
:1036940070144D2B701020000F30D30ED305203042
:1036A400D1003330A007A107A207A307A0195C2B00
:1036B4000330A002A01B602B3030A002A119642BA0
:1036C4000330A102A11B682B3030A102A2196C2B7C
:1036D4000330A202A21B702B3030A202A319742B58
:1036E4000330A302A31B782B3030A302A035A10D15
:1036F400A20DA30DC91B2014C635C70DC80DC90DD5
:10370400D10B532B5318882BF014892BF010200065
:103714005308FF3ED100D1365108203E8600870170
:103724000108D200F01C9A2B0F30D20ED2059B2B2D
:10373400D1030230F0060F30D2055208031D701475
:10374400701CA82B3030D2072E30AA2B2030D20088
:10375400CF00701FB22B52089431E5249831C02B4E
:1037640052089D279831530850060319BD2B073082
:103774005306031DC02B4F089D2798312000D30BFF
:103784008E2B701308000030042698312330CF00AC
:103794008330D0004B27983140300426983189304B
:1037A400CF008330D0004B2798310930042698315C
:1037B40021006B082000C6002030C701C801C901E0
:1037C4003F239831E92B0A304A060319EF2B4C2288
:1037D40098310C304A06031DE52B0A304A06031DB6
:1037E4001C2C153021006B02031CFB2BEB01EB0A94
:1037F4001C2C02306B060319032C14306B06031DBA
:103804001B2C02302000D200D30121006B082000C1
:10381400CC000530CD01CE00CF01372298314D08C0
:10382400D5004C08D4005D27983152082100EB00E4
:103834001C2CEB350C3020004A06031DD72B00301E
:10384400042698310130CF008330D0004B279831C3
:103854004030042698318930CF008330D0004B2784
:1038640098310A300426983121006A082000D400D7
:103874000330D501D435D50DD435D50DD200D301BF
:103884005D2798315208C6005308C700890D893B4B
:103894008909C800C9002A303F239831552C0A30C1
:1038A4004A0603195B2C4C2298310C304A06031D3E
:1038B400512C0A304A06031D652C21001030EA0AF7
:1038C4006A020318EA010C3020004A06031D332C57
:1038D400003004269831AC30CF008230D0004B2722
:1038E40098314030042698318930CF008330D0009D
:1038F4004B2798310A300426983121006F082000A4
:10390400C6008039031DFF30C700C800C90030302D
:103914003F239831912C0A304A060319972C4C22E4
:1039240098310C304A06031D8D2C0A304A06031DBB
:10393400A42C2100EF0A6F08803A3F3E031CA42CFC
:10394400EF01EF0A0C3020004A06031908007C2C12
:10395400003004269831DE30CF008330D0004B276E
:103964009831403004269831AB30CF008330D000FA
:103974004B2798314C2298310C304A06031DBC2C3D
:10398400003004269831EF30CF008330D0004B272D
:1039940098314030042698314130D40001308422DB
:1039A400983140300426983121006E1CDE2C4D30B5
:1039B4002000CF008430E22C48302000CF00843037
:1039C400D0004B2798314430042698312100EE1C56
:1039D400F02C4D302000CF008430F42C48302000EF
:1039E400CF008430D0004B279831483004269831DA
:1039F40021006E1D022D4D302000CF008430062D95
:103A040048302000CF008430D0004B2798314C3010
:103A1400042698312100EE1D142D84302000CF009F
:103A24008430182D07302000CF009030D0004B2771
:103A3400983121006E1E232DBA302000CF0084302F
:103A4400272DB8302000CF008430D0004B27983188
:103A5400540804269831322D0A304A060319382DA9
:103A64004C2298310C304A06031D2E2D0C304A0688
:103A7400031D492D4A3054020318432D0430D40742
:103A8400492D4B305402031C492DD40AD40A0A3060
:103A94004A06031DB02D41305406031D5F2D03104B
:103AA40021006E1C03140030093D2000D3002100C6
:103AB4006E0820005306FE39AD2D45305406031D13
:103AC400722D03102100EE1C03140030093D200068
:103AD400D300D30D21006E0820005306FD39AD2D0F
:103AE40049305406031D862D031021006E1D031456
:103AF4000030093D2000D300D30DD30D21006E0802
:103B040020005306FB39AD2D4D305406031D9B2D6B
:103B140003102100EE1D03140030093D2000D300E2
:103B2400D30DD30DD30D21006E0820005306F739B1
:103B3400AD2D4F305406031DB02D031021006E1E11
:103B440003140030093D2000D300D30E21006E0879
:103B540020005306EF3953062100EE0050302000B8
:103B64005402031CD32C00308422983100300426E4
:103B74009831BD30CF008230D0004B27983140308F
:103B8400042698318930CF008330D0004B279831F8
:103B94000D30042698312100EE1FD52D94302000DD
:103BA400CF008430D92D90302000CF008430D00055
:103BB4004B279831E12D0A304A060319E72D4C2290
:103BC40098310C304A06031DDD2D0A304A06031DC8
:103BD400FD2D03102100EE1F03140030093D2000C9
:103BE400D300D30CD30C21006E08200053067F3978
:103BF40053062100EE000C3020004A06031DCA2D96
:103C04000030842A2000CF000F13803E9D270F1719
:103C140008000030DC01042698312E30CF008430B7
:103C2400D0004B2798314030042698316730CF00BC
:103C34008330D0004B27210057082000AB0021001F
:103C440056082000AA00210055082000A9002100E0
:103C540054082000A80006308E314B2698312B08DA
:103C6400031D3C2E983028029230293B98302A3B81
:103C7400031C552EE93028025D30293B62302A3B73
:103C840002302B3B0318552E2B082100D7002000AF
:103C94002A082100D600200029082100D500200090
:103CA40028082100D400003004269831DF30CF00EA
:103CB4008230D0004B279831403004269831893027
:103CC400CF008330D0004B27983189308400823074
:103CD40085000008DB0021006D0820005B06031D41
:103CE400752EDC01DC0A0E30042698315C080319B9
:103CF4007F2EA730CF008430822EAA30CF008430AC
:103D0400D0004B2798318A2E0A304A060319902E88
:103D14004C2298310C304A06031D862E0A304A067E
:103D2400031D972E5C08013CDC000C304A06031D81
:103D3400752E5C08883E840082300318013E85009D
:103D440000082100ED0020000030DC010426983139
:103D54001130CF008430D0004B27983140300426F6
:103D640098318930CF008330D0004B279831BF2E53
:103D740002305C020318CE2EDC0A5C08A43E8400E8
:103D840084300318013E85000008DB0021006C0824
:103D940020005B06031DBA2E0D30042698315C0802
:103DA400031DDA2E9830CF008430D0004B27983191
:103DB4005C0BE22E9C30CF008430D0004B2798312E
:103DC40002305C06031DF12EA030CF008430D000F9
:103DD4004B279831F12E0A304A060319F72E4C224C
:103DE40098310C304A06031DED2E0A304A06031D95
:103DF400002F0330DC0A5C020318DC010C304A0695
:103E0400031DCE2E5C08A43E840084300318013EBA
:103E1400850000082100EC0000300426983112309F
:103E2400CF008330D0004B2798314030042698319E
:103E34008930CF008330D0004B2798310F300426CF
:103E440098310130DB002100690A20002A2FDB357C
:103E5400890B292F5B088B31E7239831352F0A30E2
:103E64004A0603193B2F4C2298310C304A06031D95
:103E7400312F0A304A06031D452F21000330E90A79
:103E840069020318E9010C3020004A06031D202FA3
:103E94008B294F088400500885001200031908007C
:103EA4004F0884005008850000089D279831CF0AE8
:103EB4000319D00A4B2FD701D31F672FD209D30977
:103EC400D20A0319D30AD701D70AD51F702FD409F0
:103ED400D509D40A0319D50A0130D706D801D90166
:103EE400520853040319902FD601D60AD31B7D2FF1
:103EF400D235D30D772FD835D90D53085502031D6C
:103F0400852F52085402031C8C2F5208D4025308E4
:103F1400D53B5814D336D20CD60B7D2F5708031932
:103F2400982FD809D909D80A0319D90A5908D300EE
:103F34005808D2000800CE003230CD00CD034D0F1A
:103F4400A02F4E08CC00CC36CC36CC364C088D0095
:103F54008F178F134E358D008F178F138D01080027
:103F640020004408C9004308C8004208C7004108AB
:103F7400C6002B08C4002A08C3002908C200280868
:103F8400C1004908AB004808AA004708A900460830
:103F9400A8000800D430CE00CF0123009518CF2FFD
:103FA4002000CD014F08973CCC00031CCD03230017
:103FB400910020004D082300920020004F084E0776
:103FC400CC00860087010108230093003F3095054B
:103FD40003108B1B03148B13151555309600AA3050
:103FE40096009514151103188B179518F72F2000B8
:0C3FF4001C30CF0A4F0203180800CF2F2A
:020000040001F9
:04000E0004EEFFDE1F
:10E000000000000000001B0077004000000000003E
:10E010001B00770040000000000000003500670092
:10E02000E0000000000035006700E0000000000094
:10E0300000006A00CF00C000000000006A00CF00AE
:10E04000C0000000100000009A001D002000100019
:10E0500000009A001D002000000010000000D50004
:10E060009F00800010000000D5009F00800000008D
:10E070001000010013006B00D0001000010013001D
:10E080006B00D00000001000010040006F00400055
:10E090001000010040006F0040000000100001006F
:10E0A0007B00CA009000100001007B00CA009000B5
:10E0B000000010000100AB003F0000001000010054
:10E0C000AB003F0000000000000000000F00420015
:10E0D0004000000000000F00420040000000FF0070
:10E0E000FF00FF00FF00FF00FF00FF00FF00FF0038
:10E0F000FF00FF00FF00FF001F002C005200C000C7
:10E100000A000A000200C200B900B200AE00AB0073
:10E11000A800A600A500A300A200A0009E009B00EE
:10E120009A0099000200580001008C00BA0080009B
:10E13000FF00FF00FF00FF00FF00FF00FF00FF00E7
:10E14000FF00FF00FF00FF00FF00FF00FF00FF00D7
:10E15000FF00FF00FF00FF00FF00FF00FF00FF00C7
:10E16000000000002E00E0000100C900D7000800F8
:10E170000100AB003B0018000100C500330088001F
:10E1800001007B00C600A80001007D0055001800BA
:10E19000010040006B005800010047005000F800EB
:10E1A000010013006700E80001001500440078003A
:10E1B0000000D5009B0098000000DA00FA009800EB
:10E1C00000009A001900380000009A00E40058008E
:10E1D00000006A00CB00D80000006D00E000E800FD
:10E1E000000035006300F80000003900FF00A800BF
:10E1F00000001B007300580000001E00880068002B
:00000001FF
