:0400000080318B2898
:100008007E1480312000921E22282100921E222870
:100018002200131F1128013012280030F500111F8B
:1000280017280130182800307506031D1E282000E7
:10003800BD0A20282000BD039212F1162000121FCD
:100048003E282100121F3E282200131F2D280130B0
:100058002E280030F500111F3328013034280030D5
:100068007506031D3A282000BD033C282000BD0A60
:100078001213F1168B1C89288B100B1E8928CF3080
:1000880021008C00FF308E008F003E30F900FA010D
:1000980020003C080530031DFA00FA070B30F20077
:1000A8004808843167248031FA07FB0105307B0258
:1000B80003188828230095185E287A08F500F601A9
:1000C8007608F8007B087502F700031CF803910016
:1000D800780892007B087907F500860087010108F7
:1000E80093003F30950503108B1B03148B131515D4
:1000F80055309600AA3096009514151103188B17E1
:1001080095188428FB0A5A28F0157E1009008031BA
:100118008D282030F001F101F901FA01FB0184007A
:100128000030850029308431AF248031A03084002C
:10013800003085001B308431AF24803120308400AA
:100148000130850050308431AF2480317E1020008A
:10015800AD288931A8218031E9010B1DD228200062
:100168003B0895000B1106307017E90A6902031C59
:10017800DA28E901F01EDA280030F0128E318A26DA
:1001880080314108C6004008C5003F08C4003E0849
:10019800C30084308C3125248031DA28701FDA2896
:1001A80070132000421FDA28B8218031F11EE3289D
:1001B8000F2180311B228031F112F016B128200066
:1001C8008C19EA28883104208031B128F01DF928DB
:1001D8008B138830F011C9001330CA008B31FA2311
:1001E80080318931A8218031B1288B31A323803116
:1001F8000D304706031D02297112B1284708031D57
:1002080007297116B1280D3047020318B12890311B
:100218008F208031B1288B1320003D08D900BD0103
:100228008B17210037082000DA00DB01DC01DD0133
:10023800711E36296430C900CA01CB01CC015D08A2
:10024800D0005C08CF005B08CE005A08CD0094317E
:10025800B52480314C08DD004B08DC004A08DB007F
:100268004908DA005908C9008039031DFF30CA005F
:10027800CB00CC005D08D0005C08CF005B08CE0046
:100288005A08CD009431B52480314C08DD004B0864
:10029800DC004A08DB004908DA00BE075B08BF3DFE
:1002A8005C08C03D5D08C13D480809070907090702
:1002B800243E860001308700403FD500413FD600EC
:1002C800423FD700433FD8004102031D7529570814
:1002D8004002031D752956083F02031D752955085C
:1002E8003E02480803188829090709070907243E18
:1002F800860001308700403FBE00413FBF00423FBB
:10030800C000433FC1004808090709070907203E04
:10031800860001308700403FD500413FD600423F6C
:10032800D700433FD80041085802031DA5294008BB
:100338005702031DA5293F085602031DA5293E089B
:100348005502031808004808090709070907203E4D
:10035800860001308700403FBE00413FBF00423F5A
:10036800C000433FC10008003A08031DCB299D3057
:1003780021009D0020001430B8017011BA01BA0A9A
:10038800CF00CF034F0FC52921009D14080021007D
:100398001C08200038020318D52921001C08200059
:1003A800B80021009D14643020003A02031CE129A2
:1003B8003808B900B8017015BA01701D192A3A0831
:1003C800A63E860087010108390203180A2A4D3023
:1003D8008E318A2680310A303A020318FC291030FF
:1003E800CC009830CD008F31D12780313A08062AC9
:1003F8002B308C31102480313A08F73E963189260B
:1004080080310030963189268031182A0E303A0220
:10041800031C192A4D308E318A2680313230CC00A7
:100428009A30CD008F31D1277011BA0A08004108DF
:10043800C6004008C5003F08C4003E08C3002100AC
:10044800BA1E282A71194B2A2000C21D4B2A421EA7
:10045800402A210024082000E5002100250820006A
:10046800E600E701E8016508C3026608C43B6708BF
:10047800C53B6808C63B4B2A210024082000C30757
:10048800210025082000C43D0030C53DC63D21009F
:10049800350A2000532AC335C40DC50DC60D890B76
:1004A8004F2A562A4608CC004508CB004408CA0003
:1004B8004308C9003530D000A430CF00E930CE0061
:1004C800CD01C42380314A08E0004908DF005F10ED
:1004D80031086006031D722A30085F060319B32A23
:1004E8006008B1005F08B00070165F08DB006008A4
:1004F800DC00DD01DE015B08D6005C08D7005D0882
:10050800D8005E08D9000730D635D70DD80DD90DDB
:10051800890B882A5908E4005808E3005708E200C4
:100528005608E1000030E107FE30E23DFF30E33DD0
:10053800E43D6308C9000330C9052C308A31CD2257
:10054800803120006208C9002D308A31CD228031E7
:1005580020006108C9002E308A31CD228031200068
:100568005F08C9006008CA00CB01CC014608D0006A
:100578004508CF004408CE004308CD009431B52487
:1005880080314C08E4004B08E3004A08E2004908BF
:10059800E100210023082000CC00210022082000CF
:1005A800CB00210021082000CA00210020082000DB
:1005B800C9006408D0006308CF006208CE00610853
:1005C800CD00C4234C08DE004B08DD004A08DC00DF
:1005D8004908DB00210023082000CC002100220864
:1005E8002000CB00210021082000CA00210020089B
:1005F8002000C9005E08D0005D08CF005C08CE006E
:100608005B08CD009431B52480314908E1024A08DD
:10061800E23B4B08E33B4C08E43B1430C301C40104
:10062800C501C601DA00492BC335C40DC50DC60D79
:10063800E135E20DE30DE40D2100230820006402FA
:10064800031D362B2100220820006302031D362BD0
:100658002100210820006202031D362B21002008FA
:1006680020006102031C492B210020082000E10220
:10067800210021082000E23B210022082000E33B62
:10068800210023082000E43B4314DA035A0F182BF7
:100698005B08D6005C08D7005D08D8005E08D90062
:1006A8000730D635D70DD80DD90D890B552B5908DC
:1006B800E4005808E3005708E2005608E100430840
:1006C800D6004408D7004508D8004608D9000D30A0
:1006D800D936D80CD70CD60C890B6C2B5608E104EC
:1006E8005708E2045808E3045908E4040030E10715
:1006F800FE30E23DFF30E33DE43D6308C9001C30B5
:100708008A31CD22803120006208C9001D308A312B
:10071800CD22803120006108C9001E308A31CD22E7
:10072800803120004308E1001F304405E20000301A
:10073800E3014605E4000730E135E20DE30DE40D81
:10074800890BA02B6308F038C9001F308A31CD22ED
:10075800803120006208C90020308A31CD228031E2
:1007680020006108C90021308A31CD228031701EF5
:100778000800203070122000C900B1308A31CD2A1B
:10078800D101D201D301D4014C084B044A044904D5
:100798000319FA2BD501D50ACC1BD72BC935CA0D9D
:1007A800CB0DCC0DCF2BD135D20DD30DD40D4C089C
:1007B8005002031DE92B4B084F02031DE92B4A0881
:1007C8004E02031DE92B49084D02031CF42B49086E
:1007D800CD024A08CE3B4B08CF3B4C08D03B5114C6
:1007E800CC36CB0CCA0CC90CD50BD72B5408CC0073
:1007F8005308CB005208CA005108C9000800D401A8
:10080800D01F0D2CCF09D009CF0A0319D00AD40163
:10081800D40AD21F162CD109D209D10A0319D20A37
:100828000130D406D501D6014F0850040319362CDF
:10083800D301D30AD01B232CCF35D00D1D2CD53591
:10084800D60D50085202031D2B2C4F085102031CD1
:10085800322C4F08D1025008D23B5514D036CF0C59
:10086800D30B232C540803193E2CD509D609D50AD5
:100878000319D60A5608D0005508CF000800A03042
:10088800CB00CC01CA014C08973CC900031CCA0321
:100898002300910020004A08230092003F3095056C
:1008A800151420004C084B07C90086008701230057
:1008B8001308810015185E2C20001B30CC0A4C024E
:1008C80003180800462CF400F30172087418F307A3
:1008D800F2357208F418F307F23572087419F30741
:1008E800F2357208F419F307F2357208741AF3072F
:1008F800F2357208F41AF307F2357208741BF3071D
:10090800F2357208F41BF307730808009031932836
:100918009031A4289031B4289031CC2891310929FC
:10092800913116299131232991312E299131372975
:10093800913145299131B9299131A6292300910195
:1009480092013F309505151413082000C8002300B4
:100958001518AB2C0800640080010131890BB02CFC
:02096800003459
:1010080021009212121320000F1571158F159731B8
:1010180066278831F11C1328963199268831823148
:101028001B22883100308A2688314108C6004008D2
:10103800C5003F08C4003E08C30084302524883119
:10104800A12488313230C900CA01FA23883121002D
:101058009E172000BA01B401B501B201B301F01323
:101068008C196A28A3238831470B61288030F00641
:10107800F01F512800308A2688311330CC00983070
:10108800CD00D127883140308A2688312430CC00E1
:101098009830CD00D1278831612800308A268831E0
:1010A8004108C6004008C5003F08C4003E08C30008
:1010B800843025248831A12488310B1D34283B082D
:1010C80095000B1195310E2588313428BA01F11C91
:1010D80070289631992688310F1171118F1182313C
:1010E8001B22883120003B0895000B11F11697311F
:1010F80066278831A1249212121321009216121722
:101108009E1308009D3021009D0000308A268831FA
:101118008A30CC009830CD00D127883140308A26DB
:1011280088313430CC009930CD00D1278831D701AF
:1011380021009D149D189E280F302000CF00D0015B
:1011480021001C082000C9001330CA01CB00CC01C3
:10115800E5234A08D2004908D100843103248831A4
:101168004F08C3005008C400890D893B8909C50090
:10117800C60004308A2688313B30252488310D305A
:101188008A268831093057020318D3281030CC003A
:101198009830CD00D12788315708013EDE285C30D1
:1011A800CC009A30CD00D1275708F83E96318926D1
:1011B80088310030963189268831A32388310A3056
:1011C8004706031908000C304706031DFD28403068
:1011D8008A2688310D30CC009830CD00D12788314F
:1011E8005708A63E8600870121001C0881002000C0
:1011F800D70A0F305702031808009C2800308A26A7
:101208008831BD30CC009830CD00D12788314030AE
:101218008A2688312330CC009930CD00D1278831F7
:1012280009308A268831210037082000C300203081
:10123800C401C501C6012524883126290A3047067C
:1012480003192C29A32388310C304706031D2229B2
:101258000A304706031D5929153021003702031C9F
:101268003829B701B70A5929023037060319402926
:1012780014303706031D582902302000CF00D00152
:10128800210037082000C9000530CA01CB00CC0175
:10129800E5234A08D2004908D10084310324883163
:1012A8004F082100B7005929B7350C3020004706F0
:1012B800031D142900308A2688319B30CC009830D1
:1012C800CD00D127883140308A2688312330CC00A0
:1012D8009930CD00D12788310A308A262100360876
:1012E8002000D1000330D201D135D20DD135D20D35
:1012F800CF00D0018431032488314F08C30050083F
:10130800C400890D893B8909C500C6002A302524F7
:10131800883192290A30470603199829A32388316E
:101328000C304706031D8E290A304706031DA229E3
:1013380021001030B60A36020318B6010C3020001E
:1013480047060319080070297030210099000F30F2
:101358008C00E1308D00B8308E008F01073090008E
:101368009513083024008C00E0308D008E018F0129
:10137800900123008C018D018F0107309000A0306F
:1013880022009800B23091009300E8309200E930D2
:10139800940021009E01033024009200940128301B
:1013A800950096012000BA01843143248831C83061
:1013B800B600B7013708D4003608D300D436D30CAA
:1013C8005308FF3ABB002100360EF039220099007D
:1013D8008431A22488310A3020004802031CF629EF
:1013E8000930C8009631B2268831023020003C020C
:1013F8000318BC01923109228831E3278B1221009E
:101408009512951115109514151597316627883181
:10141800C830C900CA01FA2388310F138F13053069
:10142800C900CA01FA23883106308D008F178F133F
:101438000530C900CA01FA2388318F178F13C901F3
:10144800C90ACA01FA2388318F178F13C901C90A3B
:10145800CA01FA23883104308D008F178F130530A5
:10146800C900CA01FA2388312830102488310C3089
:10147800102488310130102488310530C900CA0190
:10148800FA2388310F17063010248831C830C90074
:10149800CA01FA238831A1248831F830C900033001
:1014A800CD22883120000F30C901CD2288314F303C
:1014B8002000C9001030CD228831EC302000C9004E
:1014C8001130CD228831C0302000C9001230CD2221
:1014D800883120001830C901CD228831FF30200022
:1014E800C9001A30CD228831FF302000C9001B30D6
:1014F800CD228831FF302000C9002230CD2288312A
:10150800FF302000C9002330CD22883120002A3046
:10151800C901CD22883120002B30C901C90ACD224A
:10152800883120002F30C901CD2288312000303089
:10153800C901CD22883120003130C901CD2288313E
:1015480020009530C901CD228831A0302000C90083
:10155800B130CD228831210039082000C900B730C8
:10156800CD2288312000BB30C901CD222000921243
:10157800121321009216121715138B100B160B1746
:101588008B177111F116F0112000B001B101BD01E6
:101598000800CA00240016081F3903191419CE2A96
:1015A800161416081F3903191419D52A21003808EA
:1015B8002400910016081F3903191419DE2A200087
:1015C8004A082400910016081F3903191419E72A3C
:1015D800200049082400910016081F39031914191E
:1015E800F02A1615080000308A2688319A30CC0077
:1015F8009930CD00D127883140308A268831F030A3
:10160800CC009830CD00D12788310130D201DB23BE
:1016180088310A3047020318372B5208031D262B3E
:101628004708C9006430CA01CB00CC01E5238831E2
:101638004A082100A500200049082100A400200034
:10164800D20A372B4708C9000A30CA01CB00CC019F
:10165800E523883149082100A40720004A08210011
:10166800A53D2000D2030B308A26883121002408AA
:101678002000C300210025082000C4003830C5011F
:10168800C6012524883152080B3E8A268831A323B7
:1016980088310D30470203184B2B0C304706031DC9
:1016A8000D2B0030DB23883100308A2688316830E2
:1016B800CC009830CD00D127883140308A26883137
:1016C8002330CC009930CD00D12788310D308A26BF
:1016D80088312100BA1E752B3A302000CC009A3090
:1016E800792B36302000CC009A30CD00D1278831B4
:1016F800812B0A3047060319872BA32388310C3026
:101708004706031D7D2B0A304706031D9D2B03103A
:101718002100BA1E03140030093D2000D100D10E6B
:10172800D10D21003A0820005106DF395106210069
:10173800BA000C3020004706031908006A2BE03075
:101748000D05CD00E03A0D30031DAC2BC700080095
:1017580047060319B22B0E30C7000800FD308D0074
:101768003230C900CA01FA2388312030C701C70ABC
:10177800CF00CD2B80304F06031DC62B03148D0DD3
:101788001030CF000A30C70ACE00CE034E0FC92B47
:10179800CF350D084F050319D52B0D304702031C13
:1017A800BE2B0B3047060319C7018D010800CD0079
:1017B8000F130C3E102488310F17C901C90ACA013A
:1017C800FA2BCD01CE01491CED2B4B08CD074C0857
:1017D800CE3DCB35CC0DCA36C90C49084A04031D89
:1017E800E72B4E08CA004D08C90008003708CC008E
:1017F8003608CB000130CB020030CC3B4B0FFE2B20
:101808004C0A0130031DFF2BC9020030CA3B4908AE
:101818004A0403190800FA2BCB003230CA00CA0365
:101828004A0F132C4B08C900C936C936C9364908AE
:101838008D008F178F134B358D008F178F138D01E8
:101848000800D000A801A901AA01AB01CD0007300A
:10185800CD05D01D312C7014322C701020000F30A3
:10186800D00ED0052030CE003330A807A907AA072C
:10187800AB07A819412C0330A802A81B452C30300F
:10188800A802A919492C0330A902A91B4D2C3030F4
:10189800A902AA19512C0330AA02AA1B552C3030D0
:1018A800AA02AB19592C0330AB02AB1B5D2C3030AC
:1018B800AB02A835A90DAA0DAB0DC61B2814C3355C
:1018C800C40DC50DC60DCE0B382C50186D2CF01458
:1018D8006E2CF01020005008FF3ECE00CE364E0889
:1018E800283E860087010108CF00F01C7F2C0F30AE
:1018F800CF0ECF05802CCE030230F0060F30CF0577
:101908004F08031D7014701C8D2C3030CF072E30FB
:101918008F2C2030CF00CC004F081024883150087D
:101928004D0603199B2C07305006031D9E2C4C08AE
:1019380010248831D00B732C08000A308A2688318D
:10194800C21DAA2C2130CC009A30AD2C1C30CC0002
:101958009A30CD00D1278831C21EBC2C421EB82C2B
:101968005930CC009A30C52C5630CC009A30C52C52
:10197800421EC22C9730CC009930C52C5330CC0075
:101988009A30CD00D1278831711DE52C40308A2648
:101998008831F1187118D42C0D30CC009A30DD2C18
:1019A800711CDA2C1230CC009A30DD2C0E30CC00B1
:1019B8009830CD00D1278831BB30CC009930CD008C
:1019C800D12FF11DF72C40308A268831FE30CC000B
:1019D8009930CD00D1278831BC30C9000230CA0007
:1019E800FA238831F11140308A268831711C002D84
:1019F8001230CC009A30092DF11C062D0D30CC0088
:101A08009A30092D0E30CC009830CD00D12788317E
:101A1800C21C122D0330CC009A30152D0E30CC008C
:101A28009830CD00D1278831421C1E2D1730CC00AC
:101A38009A30212D0E30CC009830CD00D127883136
:101A4800421F2B2D9630CC009830CD00D12FEE3090
:101A5800CC009930CD00D12F00308A2688317830DB
:101A6800CC009930CD00D127883140308A26883182
:101A78004530CC009930CD00D1278831A323883157
:101A88000C304706031D422D00308A2688318930E4
:101A9800CC009930CD00D127883140308A26883152
:101AA8004130D1000130DB23883140308A2688312B
:101AB80021003A1C642DF9302000CC009930682DA3
:101AC800F4302000CC009930CD00D1278831443043
:101AD8008A2688312100BA1C762DF9302000CC00E6
:101AE80099307A2DF4302000CC009930CD00D127E0
:101AF800883148308A26883121003A1D882DF930EE
:101B08002000CC0099308C2DF4302000CC00993086
:101B1800CD00D12788314C308A2688312100BA1D62
:101B28009A2D2A302000CC009A309E2D2630200095
:101B3800CC009A30CD00D127883121003A1EA92D3A
:101B480060302000CC009A30AD2D5E302000CC00F3
:101B58009A30CD00D127883151088A268831B82D8E
:101B68000A3047060319BE2DA32388310C304706D7
:101B7800031DB42D0C304706031DCF2D4A305102EA
:101B88000318C92D0430D107CF2D4B305102031C47
:101B9800CF2DD10AD10A0A304706031D362E41300F
:101BA8005106031DE52D031021003A1C03140030D3
:101BB800093D2000D00021003A0820005006FE39D7
:101BC800332E45305106031DF82D03102100BA1C91
:101BD80003140030093D2000D000D00D21003A0840
:101BE80020005006FD39332E49305106031D0C2EB6
:101BF800031021003A1D03140030093D2000D000D5
:101C0800D00DD00D21003A0820005006FB39332EA4
:101C18004D305106031D212E03102100BA1D031457
:101C28000030093D2000D000D00DD00DD00D21008E
:101C38003A0820005006F739332E4F305106031D5D
:101C4800362E031021003A1E03140030093D2000EF
:101C5800D000D00E21003A0820005006EF39500677
:101C68002100BA00503020005102031C592D0030C9
:101C7800DB23883100308A2688314630CC00983002
:101C8800CD00D127883140308A2688312330CC00D6
:101C98009930CD00D12788310D308A26883121002E
:101CA800BA1F5B2E3A302000CC009A305F2E3630B7
:101CB8002000CC009A30CD00D1278831672E0A3019
:101CC800470603196D2EA32388310C304706031DE0
:101CD800632E0A304706031D832E03102100BA1F06
:101CE80003140030093D2000D000D00CD00C210096
:101CF8003A08200050067F3950062100BA000C30FF
:101D080020004706031D502E0030DB2B2000CC009E
:101D18000F13803E10240F1708000030D9018A26BF
:101D28008831E030CC009930CD00D127883140305F
:101D38008A2688310130CC009930CD00D127210086
:101D480023082000AF00210022082000AE00210057
:101D580021082000AD00210020082000AC0006303A
:101D68009331FC2388312F08031DC22E98302C0292
:101D780092302D3B98302E3B031CDB2EE9302C0291
:101D88005D302D3B62302E3B02302F3B0318DB2E9B
:101D98002F082100A30020002E082100A200200007
:101DA8002D082100A10020002C082100A0000030EF
:101DB8008A2688317930CC009830CD00D1278831F7
:101DC80040308A2688312330CC009930CD00D12785
:101DD800883101308400983085000008D80021003F
:101DE800390820005806031DFB2ED901D90A0E30E8
:101DF8008A26883159080319052F4D30CC009A30AE
:101E0800082F5030CC009A30CD00D1278831102FC0
:101E18000A3047060319162FA32388310C304706CA
:101E2800031D0C2F0A304706031D1D2F5908013CBE
:101E3800D9000C304706031DFB2E5908003E8400CC
:101E480098300318013E850000082100B9002000E1
:101E58000030D9018A268831AB30CC009930CD00CA
:101E6800D127883140308A2688312330CC009930F8
:101E7800CD00D1278831452F023059020318542F3D
:101E8800D90A59084A3E84009A300318013E850051
:101E98000008D8002100380820005806031D402FEC
:101EA8000D308A2688315908031D602F3E30CC003A
:101EB8009A30CD00D1278831590B682F4230CC0099
:101EC8009A30CD00D127883102305906031D772F6B
:101ED8004630CC009A30CD00D1278831772F0A3090
:101EE800470603197D2FA32388310C304706031DAD
:101EF800732F0A304706031D862F0330D90A59026B
:101F08000318D9010C304706031D542F59084A3EBF
:101F180084009A300318013E850000082100B800AB
:101F280000308A268831AC30CC009830CD00D127DB
:101F3800883140308A2688312330CC009930CD0052
:101F4800D12788310F308A2688310130D800210006
:101F5800350A2000B02FD835890BAF2F5808963195
:101F680089268831BB2F0A3047060319C12FA323BE
:101F780088310C304706031DB72F0A304706031D6A
:101F8800CB2F21000330B50A35020318B5010C30F8
:101F980020004706031DA62FF72A4C0884004D0889
:101FA80085001200031908004C0884004D088500BC
:101FB800000810248831CC0A0319CD0AD12F20300B
:101FC800CA00CB014B092300910092013F309505CF
:101FD800151420004B084A07C90086000130870005
:101FE8002300130881001518F72F20005030CB0A62
:081FF8004B0203180800E62F5C
:10211E00210092121213AB29F11C9A280130F106FC
:10212E0099269031B929C42190313C08013CBC005C
:10213E007C22903109229031B9297118B929F11CEC
:10214E00AA28F110B9293C08013CBC00C4219031E9
:10215E003C08013CBC00F115B9297118B929F11CD4
:10216E00C1282F08C1002E08C0002D08BF002C0862
:10217E00BE00C9284108AF004008AE003F08AD00C0
:10218E003E08AC000230F106B929F118B929031046
:10219E00C21D03140030093DE300E30DE30DE30D12
:1021AE0042086306F7396306C200421EE02801307A
:1021BE00E1280030E300C21DE6280130E728003098
:1021CE0063060319FD28210024082000E3002100E6
:1021DE0025082000E400E501E6016308BE0264085C
:1021EE00BF3B6508C03B6608C13BB92921002408E6
:1021FE002000BE07210025082000BF3D0030C03D55
:10220E00C13DB929F118B9290310421E031400303B
:10221E00093DE300E30E42086306EF39422903103D
:10222E00421F03140030093DE300E30EE30DE30DFE
:10223E0042086306BF3942290310C21C0314003042
:10224E00093DE300E30D42086306FD394229031000
:10225E00421C03140030093DE3004206FE394229B8
:10226E000310C21E03140030093DE300E30EE30D1C
:10227E0042086306DF396306C200B929F118B9298D
:10228E00612290317C229031C42100308E318A2619
:10229E009031D130CC009930CD008F31D127903193
:1022AE0048088926C830CC009930CD008F31D1270F
:1022BE00903140308E318A2690315630CC00993094
:1022CE00CD008F31D12790318B31A32390310D303A
:1022DE00470203186B290A30470203187E29470864
:1022EE00C80061229031B2269031092290310C3013
:1022FE004706031DB92900308E318A26903157309A
:10230E00CC009830CD008F31D127903140308E31B6
:10231E008A269031CE30CC009830CD008F31D12727
:10232E0090318B31A32390310D3047020318982939
:10233E000A304706031DB929AC229031B929F1188C
:10234E00B929D3269031B92920004708FF3E031C36
:10235E00B92984000C3004020318B92984310435DC
:10236E008A3E82008C31A12490316627F11692129A
:10237E001213210092161217080020003E30D101D0
:10238E00D0003C080530031DD100D1070B30C90029
:10239E0048083E229031D107D20123009518D42946
:1023AE0020005108CC00CD014D08CF0052084C0240
:1023BE00CE00031CCF032300910020004F08230002
:1023CE009200200052085007CC00860087010108B9
:1023DE00230093003F30950503108B1B03148B13C2
:1023EE00151555309600AA30960095141511031840
:1023FE008B179518002A20000530D20A52020318B6
:10240E000800D42920003E30D101D0003C08053010
:10241E00031DD100D1070B30C90048083E22903170
:10242E00D107D2015108CC00CD014D08CF00520882
:10243E004C02CE00031CCF032300910020004F0856
:10244E00230092003F3095051514200052085007C6
:10245E00CC00860087012300130881001518352A49
:10246E0020000530D20A520203180800192ACB00A8
:10247E00CA0149084B18CA07C9354908CB18CA07FB
:10248E00C93549084B19CA07C9354908CB19CA07B6
:10249E00C93549084B1ACA07C9354908CB1ACA07A4
:1024AE00C93549084B1BCA07C9354908CB1BCA0792
:1024BE004A08080023009518612A91019201200014
:1024CE004808230093003F30950503108B1B03141F
:1024DE008B13151555309600AA30960095141511CC
:1024EE0003188B179518792A0800230095187C2A53
:1024FE0020004808C9000B30CA01CB00CC018B313B
:10250E00E523903149080B3ECF0000304A3DD00004
:10251E004F08230091002000500823009200200055
:10252E003C08230093003F30950503108B1B0314CA
:10253E008B13151555309600AA309600951415116B
:10254E0003188B179518A92A0800E20100308E3166
:10255E008A2690316730CC009930CD008F31D1274B
:10256E00903140308E318A269031DF30CC00983059
:10257E00CD008F31D127903101308B31DB2390315B
:10258E0062088E318A269031D02A0A304706031906
:10259E00D72A8B31A32390310C304706031DCC2A4A
:1025AE000A304706031DE12A0330E20710306202AB
:1025BE000318E2010C304706031DC72A00308B3189
:1025CE00DB2390316208031DF02A8E319126903163
:1025DE000E2B03306206031DF82A89310221903139
:1025EE000E2B06306206031DFF2A152390310E2B8B
:1025FE0009306206031D072B8D31302590310E2BCD
:10260E000C306206031D0E2B8831862090310F3060
:10261E006206031DAD2ADA248931A82940308E3195
:10262E008A2690311230CC009930CD008F31D127CF
:10263E009031E101E001E00A45308E318A26903179
:10264E006108892600308E318A2690316008031980
:10265E00472BE730CC009930CD008F31D127903108
:10266E006108090709070907243E86000130870023
:10267E00403FAC00413FAD00423FAE00433F5D2BBB
:10268E00D930CC009930CD008F31D12790316108EF
:10269E00090709070907203E860001308700403FE1
:1026AE00AC00413FAD00423FAE00433FAF000630AD
:1026BE00FC2390312F08031D6C2B40302C0242302E
:1026CE002D3B0F302E3B031C9A2BC1302C020530B4
:1026DE002D3BD9302E3B01302F3B03189A2B60082F
:1026EE0003198A2B6108090709070907243E86008A
:1026FE00013087002C08C03F2D08C13F2E08C23F75
:10270E002F08C33F9A2B6108090709070907203EC6
:10271E008600013087002C08C03F2D08C13F2E08CF
:10272E00C23F2F08C33FE003600F232B6108090748
:10273E0009070907243E860001308700403FD80074
:10274E00413FD900423FDA00433FDB0061080907F1
:10275E0009070907203E8600403FDC00413FDD00AF
:10276E00423FDE00433FDF005B085F02031DC92BC3
:10277E005A085E02031DC92B59085D02031DC92BA1
:10278E0058085C0261080318EA2B090709070907B4
:10279E00243E860001308700403FD800413FD900DB
:1027AE00423FDA00433FDB006108090709070907CA
:1027BE00203E86005808C03F5908C13F5A08C23F04
:1027CE005B08C33F6108E10AD80009305802031CB8
:1027DE00212B00308E318A2690310230CC00983079
:1027EE00CD008F31D1279031D32FD5008E318A264F
:1027FE0090312F08C6002E08C5002D08C4002C08E5
:10280E00C3008C308C3125249031D701D601560867
:10281E00203E8600083087018101D60A5602031C2D
:10282E000E2C55088E318A26903101308B31DB23E8
:10283E0090318B31A32390310D3047020318202C99
:10284E000C3047060319B22C0A304706031D412CE3
:10285E0057080319412C07305706031D3B2C570808
:10286E00203E860087018101D7035708203E86004F
:10287E00870181010A30470203184F2C5708203E6A
:10288E00860087014708810007305702031CD70ACC
:10289E00AC01AD01AE01AF01D6010A30C900CA01CB
:1028AE00CB01CC012F08D0002E08CF002D08CE0072
:1028BE002C08CD00B52490314C08AF004B08AE006B
:1028CE004A08AD004908AC005608203E8600870134
:1028DE000108AC0701300318AD070318AE07031843
:1028EE00AF070830D60A5602031C542C55088E31F9
:1028FE008A2690312F08C6002E08C5002D08C40068
:10290E002C08C3008C308C312524903102305702B4
:10291E000318972C550857078E318A269031202C94
:10292E00053057020318A22C55085707013E8E3169
:10293E008A269031202C0830570255080318AD2CEA
:10294E005707023E8E318A269031202C093E8E3159
:10295E008A269031202C00308B31DB2BD101D20115
:10296E00D301D401491CC32C4D08D1074E08D23DCA
:10297E004F08D33D5008D43DCD35CE0DCF0DD00DE3
:10298E00CC36CB0CCA0CC90C4C084B044A04490477
:10299E00031DB92C5408CC005308CB005208CA00B2
:1029AE005108C9000800A030CB00CC0123009518B7
:1029BE00DD2C2000CA014C08973CC900031CCA0339
:1029CE002300910020004A082300920020004C08AA
:1029DE004B07C900860087010108230093003F3092
:1029EE00950503108B1B03148B131515553096008C
:1029FE00AA3096009514151103188B179518052DEE
:102A0E0020001B30CC0A4C0203180800DD2C953038
:102A1E0021009D0014302000D800D803580A031D51
:102A2E00142D21009D149D181A2D1B082000DE0068
:102A3E0021001C082000DF00993021009D00143079
:102A4E002000D900D903590A031D292D21009D14F8
:102A5E009D182F2D1B082000DC0021001C082000D3
:102A6E00DD00F01FDB2D00305F02333003195E02F4
:102A7E00031CB12D5F085D02031D472D5E085C022D
:102A8E000318B12D5C085E07CF005D085F3DD000D6
:102A9E005F08CA005E08C9005C08C9025D08CA3B2F
:102AAE000E30CB00CC018B31E52390314A08D20099
:102ABE004908D100462690315008DB004F08DA0055
:102ACE004A30CF00D0015F08D2005E08D100462602
:102ADE005008D7004F08D60003308E318A26903129
:102AEE00DE01DF0100305F020D3003195E020318B4
:102AFE00922D5B085F02031D862D5A085E02031895
:102B0E008A2D2D308B2D20308C3110249031DE0A01
:102B1E000319DF0A792D43308E318A269031DE017A
:102B2E00DF0100305F020D3003195E02031808004A
:102B3E0057085F02031DA52D56085E020318A92D26
:102B4E002D30AA2D20308C3110249031DE0A03193D
:102B5E00DF0A982D03308E318A269031DE01DF0197
:102B6E0000305F020D3003195E020318C62D2030AF
:102B7E008C3110249031DE0A0319DF0AB72D433051
:102B8E008E318A269031DE01DF0100305F020D307A
:102B9E0003195E020318080020308C311024903186
:102BAE00DE0A0319DF0ACC2D5F083502031DE12D65
:102BBE005E0834020318E72D5F08B5005E08B40006
:102BCE005D083302031DED2D5C0832020318F32D50
:102BDE005D08B3005C08B200C930BA0A3A02031CA1
:102BEE00080000303502333003193402031C402E26
:102BFE0035083302031D052E340832020318402E09
:102C0E003508D0003408CF003208CF023308D03B4D
:102C1E0032083407C9003308353DCA000A30CB00EC
:102C2E00CC018B31E52390314A08D2004908D100FE
:102C3E0046265008DB004F08DA0049308E318A26CE
:102C4E0090310830CC009A30CD008F31D1279031A1
:102C5E0000305B02643003195A0203183A2E5A08E8
:102C6E006B269031402E2E30CC009A30CD008F3115
:102C7E00D127B401B501B201B301BA010800D401E4
:102C8E00D5014F0850040319662ED301D30AD01B69
:102C9E00532ECF35D00D4D2ED435D50D50085202B2
:102CAE00031D5B2E4F085102031C622E4F08D102EA
:102CBE005008D23B5414D036CF0CD30B532E55089C
:102CCE00D0005408CF000800CC000830CE01CD0053
:102CDE003330CE07CE19752E0330CE02CE1B792E91
:102CEE003030CE02CE35CC1B4E14CC35CD0B6F2EE4
:102CFE004E0E0F3989262E308C31102490314E080D
:102D0E000F39892EC9003230CA00CA034A0F8C2EE1
:102D1E0006308D008F178F1349358D008F178F1347
:102D2E008D0108004108C6004008C5003F08C400D8
:102D3E003E08C3002F08C1002E08C0002D08BF009A
:102D4E002C08BE004608AF004508AE004408AD0092
:102D5E004308AC00080020004808C9000B30CA0127
:102D6E00CB00CC018B31E523903149080B3ECF00CF
:102D7E0000304A3DD0004F0823009100200050083B
:102D8E00230092003F309505151413082000BC0057
:102D9E0023001518CF2E080000308E318A26903170
:102DAE003530CC009830CD008F31D1279031403066
:102DBE008E318A2690310130CC009930CD008F3182
:102DCE00D12790310630AC01AD01AE01AF01FC232D
:102DDE0090317C229031C4219031DC015C080907CE
:102DEE0009070907243E860001308700403FD800BE
:102DFE00413FD900423FDA00433FDB002F02031D63
:102E0E00122F5A082E02031D122F59082D02031DD0
:102E1E00122F58082C02031C602F5C0809070907A3
:102E2E000907203E860001308700403FD800413F11
:102E3E00D900423FDA00433FDB002F085B02031D3F
:102E4E00322F2E085A02031D322F2D085902031D50
:102E5E00322F2C085802031C602F5C08C800B226C3
:102E6E009031092290312F08C1002E08C0002D0884
:102E7E00BF002C08BE00612290317C229031C4210B
:102E8E0040308E318A269031D330CC009930CD002F
:102E9E008F31D1279031480889260830CC009830E0
:102EAE00CD008F31D127BC30C9000230CA008B3122
:102EBE00FA2B0A30DC0A5C0203180800F52E2000FB
:102ECE00481C6C2F20008E146E2F20008E10C81CF4
:102EDE00732F20000E15752F20000E11481D7A2F0E
:102EEE0020000F147C2F20000F10C81D812F2000F2
:102EFE008F14832F20008F10421C892F21003A1C23
:102F0E008C2F8F2F21003A1C8F2F20000F16912F00
:102F1E0020000F12421E972F21003A1E9A2F9D2F2E
:102F2E0021003A1E9D2F20008C179F2F20008C13FE
:102F3E00C21DA52F2100BA1DA82FAB2F2100BA1D2F
:102F4E00AB2F20000C17AD2F20000C13C21EB32F79
:102F5E0021003A1DB62FB92F21003A1DB92F20009E
:102F6E000E14BB2F20000E10C21CCA2F2100BA1F38
:102F7E00C22F7119CA2FBA18C72F20008F1608003A
:102F8E0020008F1208002100BA1CD02F20008F16AF
:102F9E00080020008F1208002030CA00CB01230049
:102FAE009518D62F20004B09230091009201200086
:102FBE004B084A07C900860001308700010823002C
:102FCE0093003F30950503108B1B03148B131515BF
:102FDE0055309600AA3096009514151103188B17CC
:102FEE009518F72F20005030CB0A4B02031808001B
:102FFE00D62F5234D234203420342034203420348E
:10300E002034203420342034203420342034203412
:10301E002034203420340034743477346634203431
:10302E0020342034203420342034203420342034F2
:10303E002034203420342034003470347734723409
:10304E0020342034203420342034203420342034D2
:10305E002034203420342034203400344E3465346F
:10306E007734203446342034203420342034203435
:10307E002034203420342034203420340034703472
:10308E007234653420345434583420346F346634FA
:10309E00663420342034203420342034203400345C
:1030AE00533465347434743469346E346734733421
:1030BE002E342E342E342034203420342034203438
:1030CE0000344334573420347334683469346634EE
:1030DE007434203454345834203420342034203482
:1030EE00203400344334723479347334743461349C
:1030FE006C34203443346134703420342034203422
:10310E002034203400345534613464346334203434
:10311E0020342034203476342C342034203473344C
:10312E002034203420340034563461346C3420344E
:10313E0055342034723465346634203420342034CF
:10314E0020347634203420340034463420346F3426
:10315E007534743420346D3475346C34743469348D
:10316E0070346C3479342034203400345634613465
:10317E006C34203473347434653470342034203419
:10318E002034203448347A342034203400344E3401
:10319E0065347834743420342A3420342034203486
:1031AE002034203445345334433420342334003413
:1031BE004E3465347834743420342A342034203438
:1031CE00533465346C3465346334743420342334AE
:1031DE000034203420342034203420342034203461
:1031EE002034203420342034533465347434203465
:1031FE00233400344234733420342A3420342034BF
:10320E002034203420342034203453346534743444
:10321E00203423340034423461346E346434203428
:10322E002034203420342034203420345334653478
:10323E0074342034233400344334683461346E34AF
:10324E006734653420342A34203420342034533407
:10325E006534743420342334003445347334633489
:10326E0020342A34203420342034203420344E3478
:10327E006534783474342034233400344334683461
:10328E0061346E346734653420342A34203420346B
:10329E004E34653478347434203423340034453459
:1032AE007334633420342A342034203420342034D0
:1032BE004E3465347734203430342D343934003480
:1032CE004634203456346C346334203442344C3417
:1032DE00203449346F34203453346D342034513417
:1032EE000034533465347434203470346F34723493
:1032FE007434733420346C346534763465346C3401
:10330E007334003461347434743420347034723451
:10331E006534203466346C3474342034633477343A
:10332E0020347534003443345734203473346834C5
:10333E0069346634743420342034203420342034FC
:10334E00203448347A3400345334693435343334C9
:10335E00353431346134203461346434643472343D
:10336E002034203420340034543458342034203463
:10337E00203420342034203420342034203420349F
:10338E00003420347334613476346534643420343C
:10339E002034003420342034423461346E346434AA
:1033AE00203400345534703420342034203420340A
:1033BE00003458344F342034463420342034003412
:1033CE0044346F3477346E34203420340034203457
:1033DE0020345234583420340034203448342034CD
:1033EE002034003420344C342034203400346634FD
:1033FE003D34463420340034703472346534203415
:10340E0000347334773472342034003472346934B7
:10341E0074342034003478346934743420340034F5
:10342E00613474347434203400342034733473347F
:10343E006234003420342034633477340034203442
:10344E0048342034003420344C34203400343E349C
:10345E003134303400342B343634303400344F347D
:10346E0046344634003420344F344E34003436342F
:10347E003034683400343634323468340034363400
:10348E00463468340034C034C434DE3448344934ED
:10349E0000344C344F34003420346C3400342E3429
:1034AE006C3400342E34753400342B3400344834EC
:0634BE0000344C34003420
:020000040001F9
:04000E0004EEFFDE1F
:10E000000000000000001B0077004000000000003E
:10E010001B00770040000000000000003500670092
:10E02000E0000000000035006700E0000000000094
:10E0300000006A00CF00C000000000006A00CF00AE
:10E04000C0000000100000009A001D002000100019
:10E0500000009A001D002000000010000000D50004
:10E060009F00800010000000D5009F00800000008D
:10E070001000010013006B00D0001000010013001D
:10E080006B00D00000001000010040006F00400055
:10E090001000010040006F0040000000100001006F
:10E0A0007B00CA009000100001007B00CA009000B5
:10E0B000000010000100AB003F0000001000010054
:10E0C000AB003F0000000000000000000F00420015
:10E0D0004000000000000F00420040000000FF0070
:10E0E000FF00FF00FF00FF00FF00FF00FF00FF0038
:10E0F000FF00FF00FF00FF00FF002C005200C000E7
:10E100000A000A000200C200B900B200AE00AB0073
:10E11000A800A600A500A300A200A0009E009B00EE
:10E120009A0099000200580001008C00BA0080009B
:10E13000FF00FF00FF00FF00FF00FF00FF00FF00E7
:10E14000FF00FF00FF00FF00FF00FF00FF00FF00D7
:10E15000FF00FF00FF00FF00FF00FF00FF00FF00C7
:10E16000000000002E00E0000100C900D7000800F8
:10E170000100AB003B0018000100C500330088001F
:10E1800001007B00C600A80001007D0055001800BA
:10E19000010040006B005800010047005000F800EB
:10E1A000010013006700E80001001500440078003A
:10E1B0000000D5009B0098000000DA00FA009800EB
:10E1C00000009A001900380000009A00E40058008E
:10E1D00000006A00CB00D80000006D00E000E800FD
:10E1E000000035006300F80000003900FF00A800BF
:10E1F00000001B007300580000001E00880068002B
:00000001FF
