:060000000A128A110E280D
:10000800FE00030EF6000408F7000A08F8000A16B6
:100018008A113F2A0A128A1111282030F001F101B1
:10002800F901FA01FB018313840049300A128A118D
:10003800F3270A128A11A0308400BB300A128A11F1
:10004800F3270A128A11903083178400E0300A12CD
:100058008A11F32783010A168A11C42983168D127F
:100068000D138F29F11C3E280130F10688220A124F
:100078008A11A029AD210A128A113C08013CBC0052
:1000880062220A128A11EC210A128A11A029711817
:10009800A029F11C5128F110A0293C08013CBC0002
:1000A800AD210A128A113C08013CBC00F115A029B7
:1000B8007118A029F11C69282F08C1002E08C0005A
:1000C8002D08BF002C08BE0071284108AF00400869
:1000D800AE003F08AD003E08AC000230F106A02992
:1000E800F118A0290310C21D0314003003180130B1
:1000F800E500E50DE50DE50D42086506F7396506ED
:10010800C200421E892801308A280030E500C21D3D
:100118008F2801309028003065060319AC28831613
:1001280024088312E500831625088312E600E701F8
:10013800E8016508BE026608031C660FBF0267086F
:10014800031C670FC0026808031C680FC102A029BE
:10015800831624088312E500831625088312E60017
:10016800E701E8016508BE07660803110318013EA8
:10017800031DBF07670803110318013E031DC007CD
:10018800680803110318013E031DC107A029F118CF
:10019800A0290310421E0314003003180130E500A3
:1001A800E50E42086506EF3909290310421F0314BA
:1001B800003003180130E500E50EE50DE50D4208B5
:1001C8006506BF3909290310C21C0314003003183F
:1001D8000130E500E50D42086506FD3909290310DF
:1001E800421C0314003003180130E5004206FE39B2
:1001F80009290310C21E0314003003180130E5005A
:10020800E50EE50D42086506DF396506C200A0293E
:10021800F118A02945220A128A1162220A128A11AB
:10022800AD2100300A128A15CA270A128A11E6304F
:10023800CC009930CD000A128A1532260A128A118A
:100248004808BE27DD30CC009930CD000A128A1547
:1002580032260A128A1140300A128A15CA270A124F
:100268008A116B30CC009930CD000A128A153226DB
:100278000A128A110A128A1591230A128A110D305C
:10028800470203183E290A3047020318562947082F
:10029800C80045220A128A11A1220A128A11EC21E9
:1002A8000A128A110C304706031DA02900300A12D1
:1002B8008A15CA270A128A116C30CC009830CD00F2
:1002C8000A128A1532260A128A1140300A128A1531
:1002D800CA270A128A11E330CC009830CD000A12DE
:1002E8008A1532260A128A110A128A1591230A12CD
:1002F8008A110D304702031878290A304706031D72
:10030800A0296E230A128A11A029F118A029B9225E
:100318000A128A11A02983124708FF3E031CA0294C
:1003280084000C3004020318A02907308A00031047
:10033800040D0407CF3E82000A128A1520240A12EF
:100348008A114625F1168D120D1383168D160D1779
:100358000800831203133E30CE01CD003C0805305F
:10036800031DCE00CE070B30C90048081B220A1215
:100378008A11CE07CF01831603178C18BF29831261
:1003880003134F084E0203178D0003134F084D0740
:10039800CC0084008313000803178C003F308316B9
:1003A8008C0503108B1B03148B130C1555308D0013
:1003B800AA308D008C140C1103188B178C18E229A5
:1003C800831203130530CF0A4F0203180800BF2910
:1003D800831203133E30CE01CD003C080530031DC7
:1003E800CE00CE070B30C90048081B220A128A111A
:1003F800CE07CF014F084E0203178D003F308316FA
:100408008C050C14831203134F084D07CC0084008D
:1004180003170C088313800083160C18102A831204
:1004280003130530CF0A4F0203180800FE29CB003A
:10043800CA0149084B18CA070310C90D4908CB1847
:10044800CA070310C90D49084B19CA070310C90D7B
:100458004908CB19CA070310C90D49084B1ACA071E
:100468000310C90D4908CB1ACA070310C90D49085A
:100478004B1BCA070310C90D4908CB1BCA074A08FA
:100488000800831603178C18452A83128D0103135D
:10049800480803178C003F3083168C0503108B1B0C
:1004A80003148B130C1555308D00AA308D008C1455
:1004B8000C1103188B178C185F2A08008316031772
:1004C8008C18622A0B3083120313C90048081B22B8
:1004D8000A128A110B3E03178D0003133C080317F9
:1004E8008C003F3083168C0503108B1B03148B1371
:1004F8000C1555308D00AA308D008C140C11031882
:100508008B178C18852A08004108C6004008C500CA
:100518003F08C4003E08C3002F08C1002E08C000D1
:100528002D08BF002C08BE004608AF004508AE00E5
:100538004408AD004308AC0008000B3083120313D5
:10054800C90048081B220A128A110B3E03178D00A6
:100558003F3083168C050C1483120C080313BC005F
:10056800831603170C18B42A080000300A128A15DB
:10057800CA270A128A114A30CC009830CD000A12D4
:100588008A1532260A128A1140300A128A15CA2799
:100598000A128A111630CC009930CD000A128A1539
:1005A80032260A128A110630AC01AD01AE01AF0144
:1005B8000A168A110A250A128A1162220A128A1157
:1005C800AD210A128A11DD015D08D8000310D80D8B
:1005D8000310D80D0310580D943E840083170008AB
:1005E800D900840A0008DA00840A0008DB00840ABB
:1005F8000008DC002F02031D0B2B5B082E02031DD5
:100608000B2B5A082D02031D0B2B59082C02031C17
:10061800682B5D08D8000310D80D0310D80D0310FF
:10062800580D903E84000008D900840A0008DA00BA
:10063800840A0008DB00840A0008DC002F085C023A
:10064800031D302B2E085B02031D302B2D085A0288
:10065800031D302B2C085902031C682B5D08C800A9
:10066800A1220A128A11EC210A128A112F08C1004C
:100678002E08C0002D08BF002C08BE0045220A1213
:100688008A1162220A128A11AD2140300A128A1593
:10069800CA270A128A11E830CC009930CD000A1214
:1006A8008A1532260A128A114808BE271D30CC0046
:1006B8009830CD000A128A153226BC30C9000230A3
:1006C800CA000A128A15EF2B0A30DD0A5D020318E8
:1006D8000800E82AE40100300A128A15CA270A121B
:1006E8008A117C30CC009930CD000A128A15322646
:1006F8000A128A1140300A128A15CA270A128A1168
:10070800F430CC009830CD000A128A1532260A122D
:100718008A1101300A128A15CB230A128A11640839
:100728000A128A15CA270A128A119E2B0A3047060E
:100738000319A72B0A128A1591230A128A110C3061
:100748004706031D9A2B0A304706031DB12B0330B9
:10075800E407103064020318E4010C304706031D57
:10076800932B00300A128A15CB230A128A116408C7
:10077800031DC42B0A128A15BB240A128A11EB2BFB
:1007880003306406031DCE2B0A128A15A1200A1213
:100798008A11EB2B06306406031DD82B0A168A1122
:1007A800F1220A128A11EB2B09306406031DE22B91
:1007B8000A128A154E260A128A11EB2B0C3064068F
:1007C800031DEB2B0A128A151B200A128A110F30FF
:1007D8006406031D6F2BF3230A128A155D29A030C6
:1007E800CA00CB01831603178C18F62B8312031348
:1007F8004B08973C03178D0003134B084A07C900A1
:1008080084008313000803178C003F3083168C057F
:1008180003108B1B03148B130C1555308D00AA3055
:100828008D008C140C1103188B178C18192C83123B
:1008380003131B30CB0A4B0203180800F62B831650
:100848008D120D13831208157115881546250A1285
:100858008A11F11C322C88220A128A11C72500300D
:100868000A128A15CA270A128A114108C6004008C6
:10087800C5003F08C4003E08C3008430BF240A12E4
:100888008A1520240A128A113230C900CA010A12B4
:100898008A15EF230A128A1183169F178312BA0149
:1008A800B401B501B201B301F0138519A32C0A12E2
:1008B8008A1591230A128A11470B9A2C8030F00668
:1008C800F01F852C00300A128A15CA270A128A11CD
:1008D8002830CC009830CD000A128A1532260A1228
:1008E8008A1140300A128A15CA270A128A11393029
:1008F800CC009830CD000A128A1532260A128A11C5
:100908009A2C00300A128A15CA270A128A1141083D
:10091800C6004008C5003F08C4003E08C300843034
:10092800BF240A128A1520240A128A110B1D592C79
:100938003B0881000B111F260A128A11592CBA0193
:10094800F11CA92C88220A128A1108117111881128
:10095800C7250A128A1183123B0881000B11F11670
:1009680046250A128A1520248D120D1383168D161A
:100978000D179F130800D000A801A901AA01AB0117
:10098800CD000730CD05D01DCB2C7014CC2C7010A9
:10099800831203130F30D00ED0052030CE00333031
:1009A800A807A907AA07AB07A819DC2C0330A802D7
:1009B800A81BE02C3030A802A919E42C0330A902A6
:1009C800A91BE82C3030A902AA19EC2C0330AA0282
:1009D800AA1BF02C3030AA02AB19F42C0330AB025E
:1009E800AB1BF82C3030AB020310A80DA90DAA0DD3
:1009F800AB0DC61B28140310C30DC40DC50DC60DC1
:100A0800CE0BD32C50180A2DF0140B2DF010831296
:100A180003135008FF3ECE000310CE0C4E08283EAC
:100A2800840083130008CF00F01C1E2D0F30CF0E5A
:100A3800CF051F2DCE030230F0060F30CF054F082B
:100A4800031D7014701C2C2D3030CF072E302E2D26
:100A58002030CF00CC004F080A128A1507240A124A
:100A68008A1150084D0603193D2D07305006031D05
:100A7800432D4C080A128A1507240A128A11D00B32
:100A8800122D08008312481C4D2D8312031387145E
:100A9800502D831203138710C81C562D831203137D
:100AA8000715592D831203130711481D5F2D831253
:100AB80003130814622D831203130810C81D682D30
:100AC8008312031388146B2D831203138810421C9E
:100AD800712D83163A1C742D782D83163A1C782DA7
:100AE8008312031308167B2D831203130812421E68
:100AF800812D83163A1E842D882D83163A1E882D43
:100B08008312031385178B2D831203138513C21DBC
:100B1800912D8316BA1D942D982D8316BA1D982DE4
:100B28008312031305179B2D831203130513C21E8B
:100B3800A12D83163A1DA42DA82D83163A1DA82D84
:100B4800831203130714AB2D831203130710C21C5F
:100B5800BC2D8316BA1FB22D7119BC2DBA18B82D29
:100B680083120313881608008312031388120800DF
:100B78008316BA1CC32D8312031388160800831228
:100B88000313881208004108C6004008C5003F0842
:100B9800C4003E08C3008316BA1ED42D7119102E46
:100BA8008312C21D102E421EF22D831624088312B2
:100BB800E500831625088312E600E701E8016508C9
:100BC800C3026608031C660FC4026708031C670F8C
:100BD800C5026808031C680FC602102E8316240875
:100BE8008312E500831625088312E600E701E80171
:100BF8006508C307660803110318013E031DC407EF
:100C0800670803110318013E031DC507680803118F
:100C18000318013E031DC6078316350A8312192ED1
:100C28000310C30DC40DC50DC60DFF3E031D142EC4
:100C38000A168A11DC2D95309F001430D800D8038D
:100C4800580A031D232E9F149F18282E83161E084A
:100C58008312DE001E08DF0099309F001430D9008F
:100C6800D903590A031D342E9F149F18392E831651
:100C78001E088312DC001E08DD00F01FFB2E00306A
:100C88005F02333003195E02031CC92E5F085D0240
:100C9800031D502E5E085C020318C92E5C085E070F
:100CA800CF005D0803185D0A5F07D0005F08CA001F
:100CB8005E08C9005C08C9025D08031CCA03CA02B1
:100CC8000E30CB00CC010A128A15D6230A128A11DB
:100CD8004A08D2004908D10072270A128A1150081E
:100CE800DB004F08DA004A30CF00D0015F08D2009D
:100CF8005E08D10072275008D7004F08D60003308D
:100D08000A128A15CA270A128A11DE01DF01003089
:100D18005F020D3003195E020318A62E5B085F02FE
:100D2800031D982E5A085E0203189C2E2D309D2E06
:100D380020300A128A1507240A128A11DE0A0319BA
:100D4800DF0A8B2E43300A128A15CA270A128A1123
:100D5800DE01DF0100305F020D3003195E02031867
:100D6800080057085F02031DBB2E56085E020318D1
:100D7800BF2E2D30C02E20300A128A1507240A12E1
:100D88008A11DE0A0319DF0AAE2E03300A128A1509
:100D9800CA270A128A11DE01DF0100305F020D3016
:100DA80003195E020318E22E20300A128A1507245E
:100DB8000A128A11DE0A0319DF0AD12E43300A12F9
:100DC8008A15CA270A128A11DE01DF0100305F0284
:100DD8000D3003195E020318080020300A128A1524
:100DE80007240A128A11DE0A0319DF0AEA2E5F08AD
:100DF8003502031D012F5E0834020318072F5F0810
:100E0800B5005E08B4005D083302031D0D2F5C08B1
:100E180032020318132F5D08B3005C08B200C93012
:100E2800BA0A3A02031C08000030350233300319AD
:100E38003402031C6C2F35083302031D252F340898
:100E4800320203186C2F3508D0003408CF0032085E
:100E5800CF023308031CD003D00232083407C9007C
:100E680033080318330A3507CA000A30CB00CC010F
:100E78000A128A15D6230A128A114A08D20049088A
:100E8800D10072275008DB004F08DA0049300A12F7
:100E98008A15CA270A128A111D30CC009A30CD0053
:100EA8000A128A1532260A128A1100305B0264304F
:100EB80003195A020318652F5A089C270A128A1127
:100EC8006C2F4330CC009A30CD000A128A15322696
:100ED800B401B501B201B301BA010800D401D501CA
:100EE8004F0850040319972FD301D30AD01B802F22
:100EF8000310CF0DD00D792F0310D40DD50D500848
:100F08005202031D892F4F085102031C932F4F08CB
:100F1800D1025008031CD203D20254140310D00C7F
:100F2800CF0CD30B802F5508D0005408CF000800F1
:100F3800CC000830CE01CD003330CE07CE19A62F15
:100F48000330CE02CE1BAA2F3030CE020310CE0DB6
:100F5800CC1B4E140310CC0DCD0BA02F4E0E0F3909
:100F6800BE272E300A128A1507240A128A114E0843
:100F78000F39BE2FC9003230CA00CA034A0FC12F29
:100F880006308600881788130310490D86008817D5
:100F98008813860108000A128A1136280A128A1153
:100FA8004B280A128A115C280A128A1174280A121C
:100FB8008A11CB280A128A11D9280A128A11E7281D
:100FC8000A128A11F3280A128A11FD280A128A11B4
:100FD8000C290A128A11A0290A128A118929640087
:0E0FE8008001840A0406031900340406F42F65
:101036009D309F000030CA270A128A159F30CC00C7
:101046009830CD0032260A128A154030CA270A1275
:101056008A154930CC009930CD0032260A128A15FD
:10106600D7019F149F1835280F30CF00D0011E08D6
:10107600C9001330CA01CB00CC01D6234A08D200DE
:101086004908D1000A168A1118210A128A154F0832
:10109600C3005008C4000030C41BFF30C500C600A2
:1010A6000430CA273B300A128A11BF240A128A1555
:1010B6000D30CA270A128A150930570203186D28FF
:1010C6002530CC009830CD0032260A128A155708F2
:1010D600013E7A286E30CC009A30CD003226570871
:1010E600F83E0A128A11BE270A128A1500300A1221
:1010F6008A11BE270A128A1591230A128A150A3006
:101106004706031908000C304706031D9C2840308B
:10111600CA270A128A152230CC009830CD00322612
:101126000A128A155708A63E84001E0883138000FB
:10113600D70A0F3057020318080034280030CA2790
:101146000A128A15D230CC009830CD0032260A1207
:101156008A154030CA270A128A153830CC009930D1
:10116600CD0032260A128A150930CA278316370897
:101176008312C3002030C401C501C6010A128A11B8
:10118600BF240A128A15CB280A3047060319D2282B
:1011960091230A128A150C304706031DC7280A3008
:1011A6004706031D0229153083163702031CDE2865
:1011B600B701B70A0229023037060319E6281430A8
:1011C6003706031D002902308312CF00D001831693
:1011D60037088312C9000530CA01CB00CC01D623DB
:1011E6004A08D2004908D1000A168A1118210A12A3
:1011F6008A154F088316B70002290310B70D0C3065
:1012060083124706031DB7280030CA270A128A151B
:10121600B030CC009830CD0032260A128A15403004
:10122600CA270A128A153830CC009930CD003226EA
:101236000A128A150A30CA27831636088312D10085
:101246000330D2010310D10DD20D0310D10DD20DF2
:10125600CF00D0010A168A1118210A128A154F08E2
:10126600C3005008C4000030C41BFF30C500C600D0
:101276002A300A128A11BF240A128A1546290A3010
:10128600470603194D2991230A128A150C30470681
:10129600031D42290A304706031D572983161030BD
:1012A600B60A36020318B6010C3083124706031934
:1012B60008001D290F3083168500E1308600B830FE
:1012C60087008801073089008113E03095000317F5
:1012D60088008901E83003139700B430831203179E
:1012E6008700B530880089160916831605138513FD
:1012F60003139F0103309300940128308312940056
:10130600831691018312BA010A168A11F8200A126D
:101316008A15C830B600B7013708D1003608D000A4
:101326000310D10CD00C5008FF3ABB0083163608C8
:101336000F39E0389700F0270A128A150A3083120F
:1013460003134802031CA9290930C8000A128A118E
:10135600A1220A128A150230831203133C020318D3
:10136600BC010A128A11EC210A128A15D1278B12A6
:101376008316811281110110811401150A128A1136
:1013860046250A128A15C830C900CA01EF230A1277
:101396008A15081388130530C900CA01EF230A12FB
:1013A6008A1506308600881788130530C900CA01D9
:1013B600EF230A128A1588178813C901C90ACA01B8
:1013C600EF230A128A1588178813C901C90ACA01A8
:1013D600EF230A128A150430860088178813053011
:1013E600C900CA01EF230A128A15283007240A12F7
:1013F6008A150C3007240A128A15013007240A12AE
:101406008A150530C900CA01EF230A128A15081782
:10141600063007240A128A15C830C900CA01EF230C
:101426000A128A1520240A128A15F830C9000330D8
:10143600A5220A128A1583120F30C901A5220A12A3
:101446008A154F308312C9001030A5220A128A1558
:10145600EC308312C9001130A5220A128A15C03059
:101466008312C9001230A5220A128A158312183077
:10147600C901A5220A128A15FF308312C9001A3043
:10148600A5220A128A15FF308312C9001B30A52235
:101496000A128A15FF308312C9002230A5220A12C9
:1014A6008A15FF308312C9002330A5220A128A1535
:1014B60083122A30C901A5220A128A1583122B30FB
:1014C600C901C90AA5220A128A1583122F30C90139
:1014D600A5220A128A1583123030C901A5220A12E2
:1014E6008A1583123130C901A5220A128A15831280
:1014F6009530C901A5220A128A15A0308312C900A7
:10150600B130A5220A128A1539088312C900B730EC
:10151600A5220A128A158312BB30C901A52283129D
:101526008D120D1383168D160D1701138B100B16C6
:101536000B178B177111F116F0118312B001B1015F
:10154600BD010800CA00831611081F3903191419B2
:10155600A62A111411081F3903191419AD2A3808BF
:1015660083129300831611081F3903191419B52A1B
:1015760083124A089300831611081F390319141998
:10158600BE2A831249089300831611081F390319CE
:101596001419C72A111508000030CA270A128A151D
:1015A600AF30CC009930CD0032260A128A15403071
:1015B600CA270A128A150530CC009930CD0032268A
:1015C6000A128A150130D201CB230A128A150A3073
:1015D60047020318182B5208031D042B4708C9009D
:1015E6006430CA01CB00CC01D6230A128A154A08F8
:1015F6008316A500831249088316A4008312D20A13
:10160600182B4708C9000A30CA01CB00CC01D623E3
:101616000A128A1549088316A4070318A50A831215
:101626004A088316A5078312D2030B30CA278316EE
:1016360024088312C300831625088312C400383099
:10164600C501C6010A128A11BF240A128A15520858
:101656000B3ECA270A128A1591230A128A150D30E3
:10166600470203182F2B0C304706031DEA2A0030C9
:10167600CB230A128A150030CA270A128A157D3032
:10168600CC009830CD0032260A128A154030CA277F
:101696000A128A153830CC009930CD0032260A124B
:1016A6008A150D30CA270A128A158316BA1E602BB0
:1016B6004F308312CC009A30642B4B308312CC000F
:1016C6009A30CD0032260A128A156D2B0A3047064B
:1016D6000319742B91230A128A150C304706031D31
:1016E600692B0A304706031D8B2B03108316BA1E7F
:1016F60003140030031801308312D100D10ED10D2E
:1017060083163A0883125106DF3951068316BA004A
:101716000C308312470603190800542BE0300605E7
:10172600CD00E03A0D30031D9A2BC700080047068E
:101736000319A02B0E30C7000800FD30860032309A
:10174600C900CA01EF230A128A152030C701C70A49
:10175600CF00BD2B80304F06031DB52B0314860D1D
:101766001030CF000A30C70ACE00CE034E0FB82B7A
:101776000310CF0D06084F050319C52B0D30470280
:10178600031CAD2B0B3047060319C7018601080061
:10179600CD0008130C3E07240A128A150817C90142
:1017A600C90ACA01EF2BCD01CE01491CE02B4B081B
:1017B600CD070318CE0A4C08CE070310CB0DCC0D6F
:1017C6000310CA0CC90C49084A04031DD82B4E083D
:1017D600CA004D08C90008003708CC003608CB00FF
:1017E6000130CB02031CCC034B0FF32B4C0A013008
:1017F600031DF42BC9020030031CCA03CA024908A0
:101806004A0403190800EF2BCB003230CA00CA0382
:101816004A0F0A2C4B08C9000310C90C0310C90C47
:101826000310C90C490886008817881303104B0D4E
:10183600860088178813860108000A30CA270A120C
:101846008A15C21D2A2C3630CC009A302D2C313008
:10185600CC009A30CD0032260A128A15C21E3D2CC3
:10186600421E392C6B30CC009A30462C6830CC00A6
:101876009A30462C421E432CAC30CC009930462C74
:101886006530CC009A30CD0032260A128A15711DB9
:10189600692C4030CA270A128A15F1187118572C7C
:1018A6002230CC009A30602C711C5D2C2730CC0085
:1018B6009A30602C2330CC009830CD0032260A12A4
:1018C6008A15D030CC009930CD00322EF11D7E2CF9
:1018D6004030CA270A128A151330CC009A30CD0040
:1018E60032260A128A15BC30C9000230CA00EF231C
:1018F6000A128A15F1114030CA270A128A15711C7C
:10190600882C2730CC009A30912CF11C8E2C22305A
:10191600CC009A30912C2330CC009830CD00322662
:101926000A128A15C21C9B2C1830CC009A309E2CA9
:101936002330CC009830CD0032260A128A15421C7C
:10194600A82C2C30CC009A30AB2C2330CC0098300D
:10195600CD0032260A128A15421FB62CAB30CC00B7
:101966009830CD00322E0330CC009A30CD00322E86
:101976000030D901CA270A128A15F530CC009930F1
:10198600CD0032260A128A154030CA270A128A1555
:101996001630CC009930CD003226831623088312E8
:1019A600AF00831622088312AE0083162108831225
:1019B600AD00831620088312AC0006300A168A1181
:1019C6000A250A128A152F08031DF52C98302E02B7
:1019D600031DF32C92302D02031DF32C98302C029C
:1019E600031C142D02302F02031D032D62302E021C
:1019F600031D032D5D302D02031D032DE9302C023E
:101A06000318142D2F088316A30083122E0883169D
:101A1600A20083122D088316A10083122C088316B8
:101A2600A0000030CA270A128A158E30CC009830E2
:101A3600CD0032260A128A154030CA270A128A15A4
:101A46003830CC009930CD003226163084009830DC
:101A5600FF000A168A1500200A128A15D800831676
:101A6600390883125806031D3A2DD901D90A0E30BA
:101A7600CA270A128A1559080319452D5F30CC006A
:101A86009A30482D6230CC009A30CD0032260A12A8
:101A96008A15512D0A3047060319582D91230A122B
:101AA6008A150C304706031D4D2D0A304706031DC7
:101AB6005F2D5908013CD9000C304706031D3A2D0D
:101AC6005908153E840098300318013EFF000A1697
:101AD6008A1500200A128A158316B900831200306F
:101AE600D901CA270A128A15C030CC009930CD0018
:101AF60032260A128A154030CA270A128A15383049
:101B0600CC009930CD0032260A128A158F2D02306C
:101B160059020318A22DD90A5908123E840098309A
:101B26000318013EFF000A168A1500200A128A15BC
:101B3600D8008316380883125806031D8A2D0D30E7
:101B4600CA270A128A155908031DB02D5330CC0036
:101B56009A30CD0032260A128A15590BB92D573004
:101B6600CC009A30CD0032260A128A150230590668
:101B7600031DC92D5B30CC009A30CD0032260A12E7
:101B86008A15C92D0A3047060319D02D91230A124A
:101B96008A150C304706031DC52D0A304706031D5E
:101BA600D92D0330D90A59020318D9010C3047063A
:101BB600031DA22D5908123E840098300318013ED9
:101BC600FF000A168A1500200A128A158316B80025
:101BD6000030CA270A128A15C130CC009830CD00D1
:101BE60032260A128A154030CA270A128A15383058
:101BF600CC009930CD0032260A128A150F30CA273A
:101C06000A128A150130D8008316350A83120D2E62
:101C16000310D80DFF3E031D0B2E58080A128A1119
:101C2600BE270A128A151B2E0A3047060319222ED2
:101C360091230A128A150C304706031D172E0A3007
:101C46004706031D2C2E83160330B50A35020318EA
:101C5600B5010C3083124706031D012ECF2A4D080D
:101C6600FF004C0884000A168A1500200A128A15FD
:101C7600003A031908004D08FF004C0884000A16B4
:101C86008A1500200A128A1507240A128A15CC0A18
:101C96000319CD0A322E0030CA270A128A158D3052
:101CA600CC009930CD0032260A128A154030CA2758
:101CB6000A128A155A30CC009930CD0032260A1203
:101CC6008A1591230A128A150C304706031D642EC5
:101CD6000030CA270A128A159E30CC009930CD00F2
:101CE60032260A128A154030CA270A128A1541304E
:101CF600D1000130CB230A128A154030CA270A12B6
:101D06008A1583163A1C8C2E0E308312CC009A301C
:101D1600902E09308312CC009A30CD0032260A125A
:101D26008A154430CA270A128A158316BA1CA02EB1
:101D36000E308312CC009A30A42E09308312CC00C8
:101D46009A30CD0032260A128A154830CA270A125E
:101D56008A1583163A1DB42E0E308312CC009A30A3
:101D6600B82E09308312CC009A30CD0032260A12E2
:101D76008A154C30CA270A128A158316BA1DC82E30
:101D86003F308312CC009A30CC2E3B308312CC00ED
:101D96009A30CD0032260A128A1583163A1ED82E9C
:101DA60072308312CC009A30DC2E70308312CC0055
:101DB6009A30CD0032260A128A155108CA270A120D
:101DC6008A15E92E0A3047060319F02E91230A12C6
:101DD6008A150C304706031DE52E0C304706031DF9
:101DE600012F4A3051020318FB2E0430D107012F70
:101DF6004B305102031C012FD10AD10A0A30470683
:101E0600031D6D2F41305106031D182F0310831635
:101E16003A1C03140030031801308312D0008316D5
:101E26003A0883125006FE396A2F45305106031DC3
:101E36002C2F03108316BA1C03140030031801302C
:101E46008312D000D00D83163A0883125006FD394E
:101E56006A2F49305106031D412F031083163A1D80
:101E660003140030031801308312D000D00DD00DBA
:101E760083163A0883125006FB396A2F4D305106F5
:101E8600031D572F03108316BA1D031400300318C1
:101E960001308312D000D00DD00DD00D83163A0834
:101EA60083125006F7396A2F4F305106031D6D2FE6
:101EB600031083163A1E03140030031801308312F0
:101EC600D000D00E83163A0883125006EF3950061A
:101ED6008316BA00503083125102031C802E003044
:101EE600CB230A128A150030CA270A128A155B30DC
:101EF600CC009830CD0032260A128A154030CA2707
:101F06000A128A153830CC009930CD0032260A12D2
:101F16008A150D30CA270A128A158316BA1F982FFA
:101F26004F308312CC009A309C2F4B308312CC005A
:101F36009A30CD0032260A128A15A52F0A30470696
:101F46000319AC2F91230A128A150C304706031D7C
:101F5600A12F0A304706031DC32F03108316BA1F8D
:101F660003140030031801308312D000D00CD00CBB
:101F760083163A08831250067F3950068316BA0034
:101F86000C3083124706031D8C2F0030CB2B831297
:101F9600CC000813803E0724081708009030CA00BA
:101FA600CB014B0903178D003F3083168C050C14AB
:101FB600831203134B084A07C900840003170C0851
:101FC6008317800083160C18E52F831203135030F5
:101FD600CB0A4B0203180800D42F831203178D0176
:101FE6003F3083168C050C1483120C080313C800AB
:0A1FF600831603170C18FB2F0800D8
:1021F000A030CA00CB014B08973C03178D003F303D
:1022000083168C050C14831203134B084A07C9006C
:10221000840003170C088313800083160C180D2903
:10222000831203131B30CB0A4B0203180800FB2850
:10223000D401D01F2229CF09D009CF0A0319D00A0F
:10224000D401D40AD21F2B29D109D209D10A0319EA
:10225000D20A0130D406D501D6014F085004031923
:102260005029D301D30AD01B39290310CF0DD00D2B
:1022700032290310D50DD60D50085202031D4229F4
:102280004F085102031C4C294F08D1025008031C6F
:10229000D203D20255140310D00CCF0CD30B392922
:1022A000540803195829D509D609D50A0319D60A9D
:1022B0005608D0005508CF0008003A08031D6D29C4
:1022C0009D309F001430B8017011BA01BA0ACE00D7
:1022D000CE034E0F68299F1408001E083802031809
:1022E00073291E08B8009F1464303A02031C7D292C
:1022F0003808B900B8017015BA01701DC2293A0832
:10230000A63E84008313000839020318B0294D301B
:102310000A128A15CA270A168A110A303A020318C5
:102320009C292530CC009830CD000A128A1532261F
:102330000A168A113A08AA292B300A128A1507248C
:102340000A168A113A08F73E0A128A11BE270A169F
:102350008A1100300A128A11BE270A168A11C12971
:102360000E303A02031CC2294D300A128A15CA27C0
:102370000A168A114730CC009A30CD000A128A150D
:1023800032267011BA0A08000A128A155D210A164F
:102390008A11E9010B1DEF2983123B0881000B1103
:1023A00006307017E90A6902031CFA29E901F01ED8
:1023B000FA290030F0120A128A15CA270A168A1161
:1023C0004108C6004008C5003F08C4003E08C300DD
:1023D00084300A128A11BF240A168A11FA29701F42
:1023E000FA2970138312421FFA290A168A115D21F5
:1023F0000A168A11F11E092A0A168A1140240A16A1
:102400008A110A128A11C7250A168A11F112F016CA
:10241000CA2983128519122A0A128A1123240A163C
:102420008A11CA29F01D252A8B138830F011C900A2
:102430001330CA000A128A15EF230A168A110A12EB
:102440008A155D210A168A11CA290A128A15912352
:102450000A168A110D304706031D302A7112CA2947
:102460004708031D352A7116CA290D304702031883
:10247000CA290A128A1132200A168A11CA2983121D
:1024800003138D1E5D2A83168D1E5D2A831203178A
:10249000081F4C2A01304D2A0030F500071F522A30
:1024A0000130532A00307506031D592A0313BD0A53
:1024B0005B2A0313BD038D12F11683120D1F7A2AB6
:1024C00083160D1F7A2A83120317081F692A013009
:1024D0006A2A0030F500071F6F2A0130702A003089
:1024E0007506031D762A0313BD03782A0313BD0A5C
:1024F0000D13F1168B1CBE2A8B100B1EBE2ACF307B
:1025000083168500FF30870088003E30F900FA010D
:1025100083123C080530031DFA00FA070B30F20065
:102520004808C7220A168A11FA07FB0105307B0208
:102530000318BD2A831603178C189A2A7B087A027F
:1025400083128D007B087907F5008400831300084F
:102550008C003F3083168C0503108B1B03148B13E8
:102560000C1555308D00AA308D008C140C110318F9
:102570008B178C18B92AFB0A962AF01578088A005E
:1025800077088400760E8300FE0E7E0E0900F400AC
:10259000F30172087418F3070310F20D7208F418AF
:1025A000F3070310F20D72087419F3070310F20D0C
:1025B0007208F419F3070310F20D7208741AF30786
:1025C0000310F20D7208F41AF3070310F20D7208EB
:1025D000741BF3070310F20D7208F41BF307730862
:1025E000080040300A128A15CA270A168A112730B5
:1025F000CC009930CD000A128A1532260A168A11AB
:10260000E301E201E20A45300A128A15CA270A16D6
:102610008A1163080A128A11BE270A168A1100302D
:102620000A128A15CA270A168A11620803192B2B67
:10263000FC30CC009930CD000A128A1532260A16D9
:102640008A116308D8000310D80D0310D80D0310A9
:10265000580D943E3D2BEE30CC009930CD000A123F
:102660008A1532260A168A116308D8000310D80D7D
:102670000310D80D0310580D903E840083170008F6
:10268000AC00840A0008AD00840A0008AE00840A89
:102690000008AF0006300A168A110A250A168A11A8
:1026A0002F08031D5F2B0F302E02031D5D2B4230C0
:1026B0002D02031D5D2B40302C02031C922B013098
:1026C0002F02031D6D2BD9302E02031D6D2B0530FB
:1026D0002D02031D6D2BC1302C020318922B6208B2
:1026E00003197C2B6308D8000310D80D0310D80DF4
:1026F0000310580D943E852B6308D8000310D80DA5
:102700000310D80D0310580D903E84002C08831739
:102710008000840A2D088000840A2E088000840A24
:102720002F088000E203620F032B6308D800031018
:10273000D80D0310D80D0310580D943E8400831754
:102740000008D900840A0008DA00840A0008DB00C7
:10275000840A0008DC006308DD000310DD0D0310AF
:10276000DD0D03105D0D903E84000008DE00840A3C
:102770000008DF00840A0008E000840A0008E10085
:102780005C086102031DCE2B5B086002031DCE2B8B
:102790005A085F02031DCE2B59085E026308031816
:1027A000FB2BD8000310D80D0310D80D0310580DC3
:1027B000943E84000008D900840A0008DA00840AE4
:1027C0000008DB00840A0008DC006308DD00031059
:1027D000DD0D0310DD0D03105D0D903E84005908E2
:1027E0008000840A5A088000840A5B088000840AFA
:1027F0005C0880006308E30AD80009305802031C13
:10280000012B00300A128A15CA270A168A111730BE
:10281000CC009830CD000A128A1532260A168A1189
:10282000112C9030CA00CB01831603178C18142C7E
:10283000831203134B0903178D0003134B084A0738
:10284000C90084008317000803178C003F308316EB
:102850008C0503108B1B03148B130C1555308D0046
:10286000AA308D008C140C1103188B178C18362C81
:10287000831203135030CB0A4B0203180800142CA8
:102880008B1383123D08DA00BD018B1783163708BE
:102890008312DB00DC01DD01DE01711E672C643078
:1028A000C900CA01CB01CC015E08D0005D08CF0091
:1028B0005C08CE005B08CD0085270A168A114C08FB
:1028C000DE004B08DD004A08DC004908DB005A083E
:1028D000C9008039031DFF30CA00CB00CC005E0860
:1028E000D0005D08CF005C08CE005B08CD008527D6
:1028F0000A168A114C08DE004B08DD004A08DC008D
:102900004908DB00BE075C0803110318013E031DE4
:10291000BF075D0803110318013E031DC0075E08D1
:1029200003110318013E031DC1074808D500031019
:10293000D50D0310D50D0310550D943E840083175B
:102940000008D600840A0008D700840A0008D800CE
:10295000840A0008D9004102031DB82C580840021F
:10296000031DB82C57083F02031DB82C56083E0221
:102970004808D5000318D12C0310D50D0310D50D30
:102980000310550D943E84000008BE00840A000820
:10299000BF00840A0008C000840A0008C10048087B
:1029A000D5000310D50D0310D50D0310550D903E25
:1029B00084000008D600840A0008D700840A0008B2
:1029C000D800840A0008D90041085902031DF22CDE
:1029D00040085802031DF22C3F085702031DF22C39
:1029E0003E085602031808004808D5000310D50D0C
:1029F0000310D50D0310550D903E84000008BE0055
:102A0000840A0008BF00840A0008C000840A000885
:102A1000C1000800D5000A128A15CA270A168A11B1
:102A20002F08C6002E08C5002D08C4002C08C300BE
:102A30008C300A128A11BF240A168A11D701D601D6
:102A40005608203E8400083083138001D60A5602BF
:102A5000031C202D55080A128A15CA270A168A1146
:102A600001300A128A15CB230A168A110A128A1516
:102A700091230A168A110D3047020318362D0C30A7
:102A800047060319D82D0A304706031D592D57084C
:102A90000319592D07305706031D532D5708203EA3
:102AA000840083138001D7035708203E84008313DA
:102AB00080010A3047020318672D5708203E840022
:102AC00047088313800007305702031CD70AAC0164
:102AD000AD01AE01AF01D6010A30C900CA01CB0178
:102AE000CC012F08D0002E08CF002D08CE002C08D6
:102AF000CD0085270A168A114C08AF004B08AE009E
:102B00004A08AD004908AC005608203E84008313F3
:102B10000008AC0701300318AD070318AE0703180F
:102B2000AF070830D60A5602031C6C2D55080A124E
:102B30008A15CA270A168A112F08C6002E08C50052
:102B40002D08C4002C08C3008C300A128A11BF243F
:102B50000A168A11023057020318B62D5708550776
:102B60000A128A15CA270A168A11362D053057020D
:102B70000318C32D57085507013E0A128A15CA27A4
:102B80000A168A11362D083057020318D02D57081F
:102B90005507023E0A128A15CA270A168A11362DCF
:102BA0005508093E0A128A15CA270A168A11362DB7
:102BB00000300A128A15CB2B4608CC004508CB0002
:102BC0004408CA004308C9003530D000A430CF0003
:102BD000E930CE00CD01B8270A168A114A08E00074
:102BE0004908DF005F1031086006031DF92D300829
:102BF0005F060319462E6008B1005F08B00070162A
:102C00005F08DB006008DC00DD01DE015B08D60048
:102C10005C08D7005D08D8005E08D90007300310B3
:102C2000D60DD70DD80DD90DFF3E031D0F2E590817
:102C3000E4005808E3005708E2005608E1000030BD
:102C4000E107FE300318FF30E207FF30031CE30703
:102C5000031CE4076308C9000330C9052C300A12BD
:102C60008A15A5220A168A1183126208C9002D301E
:102C70000A128A15A5220A168A1183126108C90050
:102C80002E300A128A15A5220A168A1183125F08AD
:102C9000C9006008CA00CB01CC014608D000450835
:102CA000CF004408CE004308CD0085270A168A11BC
:102CB0004C08E4004B08E3004A08E2004908E10040
:102CC000831623088312CC00831622088312CB00BC
:102CD000831621088312CA00831620088312C900B4
:102CE0006408D0006308CF006208CE006108CD0000
:102CF000B8270A168A114C08DE004B08DD004A0886
:102D0000DC004908DB00831623088312CC008316FD
:102D100022088312CB00831621088312CA0083166F
:102D200020088312C9005E08D0005D08CF005C084F
:102D3000CE005B08CD0085270A168A114908E102FA
:102D40004A08031C4A0FE2024B08031C4B0FE30224
:102D50004C08031C4C0FE4021430C301C401C5012C
:102D6000C601DA00F32E0310C30DC40DC50DC60D48
:102D70000310E10DE20DE30DE40D83162308831229
:102D80006402031DD32E8316220883126302031DDF
:102D9000D32E8316210883126202031DD32E8316BD
:102DA000200883126102031CF32E8316200883126D
:102DB000E10283162108031C210FDF2EE12E83126E
:102DC000E20283162208031C220FE72EE92E83124B
:102DD000E30283162308031C230FEF2EF12E831228
:102DE000E40283124314DA035A0FB32E5B08D600B1
:102DF0005C08D7005D08D8005E08D90007300310D2
:102E0000D60DD70DD80DD90DFF3E031DFF2E590845
:102E1000E4005808E3005708E2005608E1004308C0
:102E2000D6004408D7004508D8004608D9000D3020
:102E30000310D90CD80CD70CD60CFF3E031D182F4D
:102E40005608E1045708E2045808E3045908E4046A
:102E50000030E107FE300318FF30E207FF30031CAB
:102E6000E307031CE4076308C9001C300A128A1533
:102E7000A5220A168A1183126208C9001D300A129F
:102E80008A15A5220A168A1183126108C9001E300C
:102E90000A128A15A5220A168A1183124308E10034
:102EA0001F304405E2000030E3014605E40007302E
:102EB000D6000310E10DE20DE30DE40DD60B592F02
:102EC0006308F038C9001F300A128A15A5220A16B5
:102ED0008A1183126208C90020300A128A15A522BD
:102EE0000A168A1183126108C90021300A128A1554
:102EF000A5220A168A11701E080020307012831253
:102F0000C900B1300A128A15A52AD101D201D30114
:102F1000D401491C9F2F4D08D1074E0803110318F7
:102F2000013E031DD2074F0803110318013E031D84
:102F3000D307500803110318013E031DD4070310E3
:102F4000CD0DCE0DCF0DD00D0310CC0CCB0CCA0C7B
:102F5000C90C4C084B044A044904031D892F54082A
:102F6000CC005308CB005208CA005108C900080021
:102F7000D101D201D301D4014C084B044A044904C5
:102F80000319F72FD501D50ACC1BCC2F0310C90D7F
:102F9000CA0DCB0DCC0DC32F0310D10DD20DD30D07
:102FA000D40D4C085002031DDF2F4B084F02031DA8
:102FB000DF2F4A084E02031DDF2F49084D02031C74
:102FC000F12F4908CD024A08031C4A0FCE024B08D4
:102FD000031C4B0FCF024C08031C4C0FD0025114A2
:102FE0000310CC0CCB0CCA0CC90CD50BCC2F54083D
:102FF000CC005308CB005208CA005108C900080091
:10300000FF1B0A2883137F1883170008840A0319FB
:10301000FF0A08007F087F398A000408840A031920
:10302000FF0A8200C034C434DE345234D234203437
:1030300020342034203420342034203420342034F0
:103040002034203420342034203420342034003400
:1030500074347734663420342034203420342034DF
:1030600020342034203420342034203420342034C0
:1030700000347034773472342034203420342034D7
:1030800020342034203420342034203420342034A0
:10309000203400344E3465347734203446342034C0
:1030A0002034203420342034203420342034203480
:1030B0002034203400347034723465342034543475
:1030C000583420346F34663466342034203420344D
:1030D0002034203420340034533465347434743450
:1030E00069346E34673473342E342E342E342034E5
:1030F00020342034203420340034433457342034F6
:103100007334683469346634743420345434583435
:1031100020342034203420342034003443347234BA
:1031200079347334743461346C342034433461340E
:10313000703420342034203420342034003455348A
:1031400061346434633420342034203420347634C1
:103150002C34203420347334203420342034003490
:10316000563461346C342034553420347234653430
:103170006634203420342034203476342034203413
:103180000034463420346F347534743420346D3454
:1031900075346C347434693470346C34793420345C
:1031A00020340034563461346C3420347334743435
:1031B00065347034203420342034203448347A3458
:1031C0002034203400344E34653478347434203460
:1031D0002A342034203420342034203445345334ED
:1031E00043342034233400344E346534783474341A
:1031F00020342A3420342034533465346C3465341C
:1032000063347434203423340034203420342034A4
:10321000203420342034203420342034203420340E
:1032200053346534743420342334003442347334DA
:1032300020342A34203420342034203420342034E4
:10324000203453346534743420342334003442340D
:1032500061346E34643420342034203420342034FB
:10326000203420345334653474342034233400340F
:103270004334683461346E346734653420342A341E
:1032800020342034203453346534743420342334CF
:10329000003445347334633420342A3420342034E9
:1032A0002034203420344E3465347834743420345F
:1032B000233400344334683461346E346734653405
:1032C00020342A34203420344E3465347834743435
:1032D00020342334003445347334633420342A34A6
:1032E00020342034203420344E3465347734203474
:1032F00030342D34393400344634203456346C3470
:103300006334203442344C34203449346F34203414
:1033100053346D34203451340034533465347434B0
:10332000203470346F3472347434733420346C3419
:103330006534763465346C347334003461347434F9
:1033400074342034703472346534203466346C3410
:103350007434203463347734203475340034433487
:103360005734203473346834693466347434203408
:103370002034203420342034203448347A3400344B
:103380005334693435343334353431346134203492
:103390006134643464347234203420342034003492
:1033A0005434583420342034203420342034203411
:1033B00020342034203420340034203473346134F9
:1033C000763465346434203420340034203420349E
:1033D000423461346E3464342034003455347034F3
:1033E0002034203420342034003458344F342034F6
:1033F000463420342034003444346F3477346E340F
:1034000020342034003420342034523458342034D2
:1034100000342034483420342034003420344C34F8
:1034200020342034003466343D34463420340034B3
:103430007034723465342034003473347734723429
:1034400020340034723469347434203400347834D5
:103450006934743420340034613474347434203466
:103460000034203473347334623400342034203414
:10347000633477340034203448342034003420342A
:103480004C34203400343E343134303400342B3466
:103490003634303400344F3446344634003420342B
:1034A0004F344E34003436343034683400343634DB
:1034B00032346834003436344634683400344834A6
:1034C000493400344C344F34003420346C340034EC
:1034D0002E346C3400342E34753400342B340034E4
:0834E000483400344C34003480
:04400E00C4EBFFFE02
:104200000000000000001B007700400000000000DC
:104210001B00770040000000000000003500670030
:10422000E0000000000035006700E0000000000032
:1042300000006A00CF00C000000000006A00CF004C
:10424000C0000000100000009A001D0020001000B7
:1042500000009A001D002000000010000000D500A2
:104260009F00800010000000D5009F00800000002B
:104270001000010013006B00D000100001001300BB
:104280006B00D00000001000010040006F004000F3
:104290001000010040006F0040000000100001000D
:1042A0007B00CA009000100001007B00CA00900053
:1042B000000010000100AB003F00000010000100F2
:1042C000AB003F0000000000000000000F004200B3
:1042D0004000000000000F00420040000000FF000E
:1042E000FF00FF00FF00FF00FF00FF00FF00FF00D6
:1042F000FF00FF00FF00FF00FF002C005200C00085
:104300000A000A000200C200B900B200AE00AB0011
:10431000A800A600A500A300A200A0009E009B008C
:104320009A0099000200580001008C00BA00800039
:10433000FF00FF00FF00FF00FF00FF00FF00FF0085
:10434000FF00FF00FF00FF00FF00FF00FF00FF0075
:10435000FF00FF00FF00FF00FF00FF00FF00FF0065
:10436000000000002E00E0000100C900D700080096
:104370000100AB003B0018000100C50033008800BD
:1043800001007B00C600A80001007D005500180058
:10439000010040006B005800010047005000F80089
:1043A000010013006700E8000100150044007800D8
:1043B0000000D5009B0098000000DA00FA00980089
:1043C00000009A001900380000009A00E40058002C
:1043D00000006A00CB00D80000006D00E000E8009B
:1043E000000035006300F80000003900FF00A8005D
:1043F00000001B007300580000001E0088006800C9
:00000001FF
