:0400000080318B2898
:100008007E1480312000921E22282100921E222870
:100018002200131F1128013012280030F500111F8B
:1000280017280130182800307506031D1E282000E7
:10003800DF0A20282000DF039212F1162000121F89
:100048003E282100121F3E282200131F2D280130B0
:100058002E280030F500111F3328013034280030D5
:100068007506031D3A282000DF033C282000DF0A1C
:100078001213F1168B1C89288B100B1E8928CF3080
:1000880021008C00FF308E008F006030F900FA01EB
:1000980020005E080530031DFA00FA070B30F20055
:1000A8006A08843177248031FA07FB0105307B0226
:1000B80003188828230095185E287A08F500F601A9
:1000C8007608F8007B087502F700031CF803910016
:1000D800780892007B087907F500860087010108F7
:1000E80093003F30950503108B1B03148B131515D4
:1000F80055309600AA3096009514151103188B17E1
:1001080095188428FB0A5A28F0157E1009008031BA
:100118008D284A30F001F101F901FA01FB01840050
:100128000030850021308431BF248031A030840024
:100138000030850023308431BF2480312030840092
:100148000130850050308431BF2480317E1020007A
:10015800AD288931A8218031C9010B1DD228200082
:100168005D0895000B1106307017C90A4902031C77
:10017800DA28C901F01EDA280030F0128E318A26FA
:1001880080316308E8006208E7006108E60060085B
:10019800E50084308C3125248031DA28701FDA2874
:1001A80070132000641FDA2808228031F11EE1282C
:1001B8000D218031F112F016B12820008C19E828A1
:1001C800883104208031B128F01DF7288B1388303E
:1001D800F011A0001330A1008B31FA23803189314E
:1001E800A8218031B1288B31A32380310D306906D5
:1001F800031D00297112B1286908031D052971160C
:10020800B1280D3069020318B12890318F20803150
:10021800B1288B1308302000A600A7015F08A800AA
:10022800A901A81BA903C82180312608C400C00061
:10023800C035C035C0354008DF028B1744080319A4
:10024800080021003F082000C500C601C701C801F9
:10025800711E46296430A000A101A201A30148082B
:10026800A7004708A6004608A5004508A400943141
:10027800B52480312308C8002208C7002108C60019
:100288002008C5004408A0008039031DFF30A100E4
:10029800A200A3004808A7004708A6004608A50032
:1002A8004508A4009431B52480312308C8002208E9
:1002B800C7002108C6002008C500E0074608E13D40
:1002C8004708E23D4808E33D6A08090709070907A6
:1002D800243E860001308700403FC000413FC100F6
:1002E800423FC200433FC3006302031D8529420801
:1002F8006202031D852941086102031D8529400802
:1003080060026A0803189829090709070907243EA3
:10031800860001308700403FE000413FE100423F56
:10032800E200433FE3006A08090709070907203E7E
:10033800860001308700403FC000413FC100423F76
:10034800C200433FC30063084302031DB529620886
:100358004202031DB52961084102031DB529600841
:1003680040020318C7296A08090709070907203E38
:10037800860001308700403FE000413FE100423FF6
:10038800E200433FE3006B2AAB01A71FD229A6096D
:10039800A709A60A0319A70AAB01AB0AA91FDB29FB
:1003A800A809A909A80A0319A90A0130AB06AC01D2
:1003B800AD01260827040319FB29AA01AA0AA71BCD
:1003C800E829A635A70DE229AC35AD0D2708290285
:1003D800031DF02926082802031CF7292608A8026D
:1003E8002708A93B2C14A736A60CAA0BE8292B082A
:1003F8000319032AAC09AD09AC0A0319AD0A2D0883
:10040800A7002C08A60008005C08031D1B2A9D30C5
:1004180021009D0020001430DA017011DC01DC0A93
:10042800A600A603260F152A21009D140800210006
:100438001C0820005A020318252A21001C08200045
:10044800DA0021009D14643020005C02031C312A6C
:100458005A08DB00DA017015DC01701D692A5C0896
:10046800AE3E8600870101085B0203185A2A4D3008
:100478008E318A2680310A305C0203184C2A1030EB
:10048800A3009830A4008F31D12780315C08562A08
:100498002B308C31102480315C08F73E9631892648
:1004A80080310030963189268031682A0E305C020E
:1004B800031C692A4D308E318A2680313230A300E0
:1004C8009A30A4008F31D1277011DC0A0800630824
:1004D800E8006208E7006108E6006008E50021001E
:1004E800C21E782A71199B2A2000E41D9B2A641ECB
:1004F800902A21002C082000BC0021002D08200093
:10050800BD00BE01BF013C08E5023D08E63B3E08D0
:10051800E73B3F08E83B9B2A21002C082000E50721
:1005280021002D082000E63D0030E73DE83D210090
:100538003D0A2000A32AE535E60DE70DE80D890BF5
:100548009F2AA62A6808A3006708A2006608A100D7
:100558006508A0003530A700A430A600E930A50042
:10056800A401142480312108B7002008B6003610F1
:1005780053083706031DC22A520836060319032BEF
:100588003708D3003608D20070163608B20037088C
:10059800B300B401B5013208AD003308AE00340829
:1005A800AF003508B0000730AD35AE0DAF0DB00D5A
:1005B800890BD82A3008BB002F08BA002E08B900CA
:1005C8002D08B8000030B807FE30B93DFF30BA3DFD
:1005D800BB3D3A08A0000330A0052C308A31CD225B
:1005E800803120003908A0002D308A31CD22803199
:1005F80020003808A0002E308A31CD22803120001A
:100608003608A0003708A100A201A3016808A700C6
:100618006708A6006608A5006508A4009431B524FB
:1006280080312308BB002208BA002108B90020083D
:10063800B80021002B082000A30021002A08200070
:10064800A200210029082000A1002100280820007C
:10065800A0003B08A7003A08A6003908A5003808FA
:10066800A40014242308B5002208B4002108B3000C
:100678002008B20021002B082000A30021002A082E
:100688002000A200210029082000A100210028083C
:100698002000A0003508A7003408A6003308A500EC
:1006A8003208A4009431B52480312008B80221080A
:1006B800B93B2208BA3B2308BB3B1430E501E601ED
:1006C800E701E801B100992BE535E60DE70DE80DE6
:1006D800B835B90DBA0DBB0D21002B0820003B021F
:1006E800031D862B21002A0820003A02031D862BB1
:1006F8002100290820003902031D862B2100280823
:1007080020003802031C992B210028082000B80279
:10071800210029082000B93B21002A082000BA3B03
:1007280021002B082000BB3B6514B103310F682B57
:100738003208AD003308AE003408AF003508B00009
:100748000730AD35AE0DAF0DB00D890BA52B3008B8
:10075800BB002F08BA002E08B9002D08B80065089C
:10076800AD006608AE006708AF006808B0000D303D
:10077800B036AF0CAE0CAD0C890BBC2B2D08B804F1
:100788002E08B9042F08BA043008BB040030B80793
:10079800FE30B93DFF30BA3DBB3D3A08A0001C30E1
:1007A8008A31CD22803120003908A0001D308A31DD
:1007B800CD22803120003808A0001E308A31CD2299
:1007C800803120006508B8001F306605B900003088
:1007D800BA016805BB000730B835B90DBA0DBB0DB5
:1007E800890BF02B3A08F038A0001F308A31CD224F
:1007F800803120003908A00020308A31CD22803194
:1008080020003808A00021308A31CD228031701EA6
:100818000800203070122000A000B1308A31CD2AA3
:10082800A801A901AA01AB0123082204210420047C
:1008380003194A2CAC01AC0AA31B272CA035A10D27
:10084800A20DA30D1F2CA835A90DAA0DAB0D2308C9
:100858002702031D392C22082602031D392C2108E2
:100868002502031D392C20082402031C442C2008CF
:10087800A4022108A53B2208A63B2308A73B28146D
:10088800A336A20CA10CA00CAC0B272C2B08A300A0
:100898002A08A2002908A1002808A0000800A830FA
:1008A800A200A301A1012308973CA000031CA103F7
:1008B8002300910020002108230092003F30950575
:1008C8001514200023082207A000860087012300B2
:1008D8001308810015186E2C20001B30A30A230270
:1008E80003180800562CF400F30172087418F30773
:1008F800F2357208F418F307F23572087419F30721
:10090800F2357208F419F307F2357208741AF3070E
:10091800F2357208F41AF307F2357208741BF307FC
:10092800F2357208F41BF307730808009031932816
:100938009031A4289031B4289031CC2891310929DC
:10094800913116299131232991312E299131372955
:10095800913145299131B9299131A6292300910175
:1009680092013F309505151413082000EA00230072
:100978001518BB2C0800640080010131890BC02CBC
:02098800003439
:1010080021009212121320000F1571158F159731B8
:1010180066278831F11C1328963199268831823148
:101028006B22883100308A2688316308E80062081C
:10103800E7006108E6006008E5008430252488316F
:10104800A12488313230A000A101FA23883121007F
:101058009E172000DC01D601D701D401D501F01379
:101068008C196A28A3238831690B61288030F0061F
:10107800F01F512800308A2688311330A300983099
:10108800A400D127883140308A2688312430A30033
:101098009830A400D1278831612800308A26883109
:1010A8006308E8006208E7006108E6006008E500F8
:1010B800843025248831A12488310B1D34285D080B
:1010C80095000B1195310E2588313428DC01F11C6F
:1010D80070289631992688310F1171118F1182313C
:1010E8006B22883120005D0895000B11F1169731AD
:1010F80066278831A1249212121321009216121722
:101108009E1308009D3021009D0000308A268831FA
:101118008A30A3009830A400D127883140308A262D
:1011280088313430A3009930A400D1278831AE012A
:1011380021009D149D189E280F302000A600A701AD
:1011480021001C082000A0001330A101A200A30167
:10115800E5232108A9002008A8008131C821883189
:101168002608E5002708E600890D893B8909E7007C
:10117800E80004308A2688313B30252488310D3038
:101188008A26883109302E020318D3281030A3008C
:101198009830A400D12788312E08013EDE285C3023
:1011A800A3009A30A400D1272E08F83E963189264C
:1011B80088310030963189268831A32388310A3056
:1011C8006906031908000C306906031DFD28403024
:1011D8008A2688310D30A3009830A400D1278831A1
:1011E8002E08AE3E8600870121001C0881002000E1
:1011F800AE0A0F302E02031808009C2800308A26F9
:101208008831BD30A3009830A400D1278831403000
:101218008A2688312330A3009930A400D127883149
:1012280009308A26883121003F082000E500203057
:10123800E601E701E8012524883126290A306906F4
:1012480003192C29A32388310C306906031D222990
:101258000A306906031D5929153021003F02031C75
:101268003829BF01BF0A592902303F06031940290E
:1012780014303F06031D582902302000A600A7019C
:1012880021003F082000A0000530A101A200A30111
:10129800E5232108A9002008A8008131C821883148
:1012A80026082100BF005929BF350C3020006906E7
:1012B800031D142900308A2688319B30A3009830FA
:1012C800A400D127883140308A2688312330A300F2
:1012D8009930A400D12788310A308A2621003E0897
:1012E8002000A8000330A901A835A90DA835A90D2B
:1012F800A600A7018131C82188312608E500270802
:10130800E600890D893B8909E700E8002A30252491
:10131800883192290A30690603199829A32388314C
:101328000C306906031D8E290A306906031DA2299F
:1013380021001030BE0A3E020318BE010C30200006
:1013480069060319080070297030210099000F30D0
:101358008C00E1308D00B8308E008F01073090008E
:101368009513083024008C00E0308D008E018F0129
:10137800900123008C018D018F0107309000A0306F
:1013880022009800B23091009300E8309200E930D2
:10139800940021009E01033024009200940128301B
:1013A800950096012000DC01843153248831C8302F
:1013B800D800D9015908AB005808AA00AB36AA0CC6
:1013C8002A08FF3ADD0021003E0EF039220099007C
:1013D8008431B22488310A3020006A02031CF629BD
:1013E8000930EA009631B2268831023020005E02C8
:1013F8000318DE01923109228831E3278B1221007C
:101408009512951115109514151597316627883181
:10141800C830A000A101FA2388310F138F130530BB
:10142800A000A101FA23883106308D008F178F1391
:101438000530A000A101FA2388318F178F13A0016E
:10144800A00AA101FA2388318F178F13A001A00ADF
:10145800A101FA23883104308D008F178F130530CE
:10146800A000A101FA2388312830102488310C30DB
:10147800102488310130102488310530A000A101E2
:10148800FA2388310F17063010248831C830A0009D
:10149800A101FA238831A1248831F830A000033053
:1014A800CD22883120000F30A001CD2288314F3065
:1014B8002000A0001030CD228831EC302000A000A0
:1014C8001130CD228831C0302000A0001230CD224A
:1014D800883120001830A001CD228831FF3020004B
:1014E800A0001A30CD228831FF302000A0001B3028
:1014F800CD228831FF302000A0002230CD22883153
:10150800FF302000A0002330CD22883120002A306F
:10151800A001CD22883120002B30A001A00ACD22C5
:10152800883120002F30A001CD22883120003030B2
:10153800A001CD22883120003130A001CD22883190
:1015480020009530A001CD228831A0302000A000D5
:10155800B130CD228831210041082000A000B730E9
:10156800CD2288312000BB30A001CD22200092126C
:10157800121321009216121715138B100B160B1746
:101588008B177111F116F0112000D201D301DF0180
:101598000800A100240016081F3903191419CE2ABF
:1015A800161416081F3903191419D52A21004008E2
:1015B8002400910016081F3903191419DE2A200087
:1015C80021082400910016081F3903191419E72A65
:1015D800200020082400910016081F390319141947
:1015E800F02A1615080000308A2688319A30A300A0
:1015F8009930A400D127883140308A268831F030CC
:10160800A3009830A400D12788310130A901DB2339
:1016180088310A3069020318372B2908031D262B45
:101628006908A0006430A101A200A301E523883164
:1016380021082100AD00200020082100AC00200076
:10164800A90A372B6908A0000A30A101A200A3014A
:10165800E523883120082100AC072000210821005B
:10166800AD3D2000A9030B308A26883121002C08C3
:101678002000E50021002D082000E6003830E701B1
:10168800E8012524883129080B3E8A268831A323BE
:1016980088310D30690203184B2B0C306906031D85
:1016A8000D2B0030DB23883100308A2688316830E2
:1016B800A3009830A400D127883140308A26883189
:1016C8002330A3009930A400D12788310D308A2611
:1016D80088312100C21E752B3A302000A3009A30B1
:1016E800792B36302000A3009A30A400D127883106
:1016F800812B0A3069060319872BA32388310C3004
:101708006906031D7D2B0A306906031D9D2B0310F6
:101718002100C21E03140030093D2000A800A80EB5
:10172800A80D2100420820002806DF3928062100DC
:10173800C2000C3020006906031908006A2BE0304B
:101748000D05A400E03A0D30031DAC2BE90008009C
:1017580069060319B22B0E30E9000800FD308D0030
:101768003230A000A101FA2388312030E901E90ACA
:10177800A600CD2B80302606031DC62B03148D0D25
:101788001030A6000A30E90AA500A503250FC92BC9
:10179800A6350D0826050319D52B0D306902031C43
:1017A800BE2B0B3069060319E9018D010800A4005E
:1017B8000F130C3E102488310F17A001A00AA101B5
:1017C800FA2BA401A501201CED2B2208A40723084D
:1017D800A53DA235A30DA136A00C20082104031DA8
:1017E800E72B2508A1002408A00008005908A30039
:1017F8005808A2000130A2020030A33B220FFE2BA2
:10180800230A0130031DFF2BA0020030A13B200852
:10181800210403190800FA2BA2003230A100A10309
:10182800210F132C2208A000A036A036A0362008CD
:101838008D008F178F1322358D008F178F138D0111
:101848000800A700CA01CB01CC01CD01A4000730D4
:10185800A405A71D312C7014322C701020000F30F5
:10186800A70EA7052030A5003330CA07CB07CC0741
:10187800CD07CA19412C0330CA02CA1B452C303087
:10188800CA02CB19492C0330CB02CB1B4D2C30306C
:10189800CB02CC19512C0330CC02CC1B552C303048
:1018A800CC02CD19592C0330CD02CD1B5D2C303024
:1018B800CD02CA35CB0DCC0DCD0DE81B4A14E5354C
:1018C800E60DE70DE80DA50B382C27186D2CF01444
:1018D8006E2CF01020002708FF3EA500A53625082D
:1018E8004A3E860087010108A600F01C7F2C0F30B5
:1018F800A60EA605802CA5030230F0060F30A6051B
:101908002608031D7014701C8D2C3030A6072E304D
:101918008F2C2030A600A300260810248831270821
:10192800240603199B2C07302706031D9E2C230829
:1019380010248831A70B732C08000A308A268831B6
:10194800E41DAA2C2130A3009A30AD2C1C30A30032
:101958009A30A400D1278831E41EBC2C641EB82C10
:101968005930A3009A30C52C5630A3009A30C52CA4
:10197800641EC22C9730A3009930C52C5330A300A5
:101988009A30A400D1278831711DE52C40308A2671
:101998008831F1187118D42C0D30A3009A30DD2C41
:1019A800711CDA2C1230A3009A30DD2C0E30A30003
:1019B8009830A400D1278831BB30A3009930A40007
:1019C800D12FF11DF72C40308A268831FE30A30034
:1019D8009930A400D1278831BC30A0000230A10082
:1019E800FA238831F11140308A268831711C002D84
:1019F8001230A3009A30092DF11C062D0D30A300DA
:101A08009A30092D0E30A3009830A400D1278831D0
:101A1800E41C122D0330A3009A30152D0E30A300BC
:101A28009830A400D1278831641C1E2D1730A300DC
:101A38009A30212D0E30A3009830A400D127883188
:101A4800641F2B2D9630A3009830A400D12FEE30C0
:101A5800A3009930A400D12F00308A26883178302D
:101A6800A3009930A400D127883140308A268831D4
:101A78004530A3009930A400D1278831A3238831A9
:101A88000C306906031D422D00308A2688318930C2
:101A9800A3009930A400D127883140308A268831A4
:101AA8004130A8000130DB23883140308A26883154
:101AB8002100421C642DF9302000A3009930682DC4
:101AC800F4302000A3009930A400D1278831443095
:101AD8008A2688312100C21C762DF9302000A30007
:101AE80099307A2DF4302000A3009930A400D12732
:101AF800883148308A2688312100421D882DF930E6
:101B08002000A30099308C2DF4302000A3009930D8
:101B1800A400D12788314C308A2688312100C21D83
:101B28009A2D2A302000A3009A309E2D26302000BE
:101B3800A3009A30A400D12788312100421EA92D84
:101B480060302000A3009A30AD2D5E302000A30045
:101B58009A30A400D127883128088A268831B82DE0
:101B68000A3069060319BE2DA32388310C30690693
:101B7800031DB42D0C306906031DCF2D4A302802F1
:101B88000318C92D0430A807CF2D4B302802031C99
:101B9800CF2DA80AA80A0A306906031D362E41303F
:101BA8002806031DE52D03102100421C03140030F4
:101BB800093D2000A7002100420820002706FE3921
:101BC800332E45302806031DF82D03102100C21CB2
:101BD80003140030093D2000A700A70D210042088A
:101BE80020002706FD39332E49302806031D0C2E08
:101BF80003102100421D03140030093D2000A700F6
:101C0800A70DA70D2100420820002706FB39332E17
:101C18004D302806031D212E03102100C21D031478
:101C28000030093D2000A700A70DA70DA70D210032
:101C3800420820002706F739332E4F302806031DA7
:101C4800362E03102100421E03140030093D2000E7
:101C5800A700A70E2100420820002706EF39270613
:101C68002100C200503020002802031C592D0030EA
:101C7800DB23883100308A2688314630A30098302B
:101C8800A400D127883140308A2688312330A30028
:101C98009930A400D12788310D308A268831210057
:101CA800C21F5B2E3A302000A3009A305F2E3630D8
:101CB8002000A3009A30A400D1278831672E0A306B
:101CC800690603196D2EA32388310C306906031D9C
:101CD800632E0A306906031D832E03102100C21FDC
:101CE80003140030093D2000A700A70CA70C210011
:101CF8004208200027067F3927062100C2000C3041
:101D080020006906031D502E0030DB2B2000A300A5
:101D18000F13803E10240F1708000030B0018A26E8
:101D28008831E030A3009930A400D12788314030B1
:101D38008A2688310130A3009930A400D1272100D8
:101D48002B082000D10021002A082000D000210003
:101D580029082000CF00210028082000CE000630E6
:101D68009331FC2388315108031DC22E98304E024E
:101D780092304F3B9830503B031CDB2EE9304E022B
:101D88005D304F3B6230503B0230513B0318DB2E35
:101D980051082100AB00200050082100AA002000B3
:101DA8004F082100A90020004E082100A80000309B
:101DB8008A2688317930A3009830A400D127883149
:101DC80040308A2688312330A3009930A400D127D7
:101DD800883101308400983085000008AF00210068
:101DE800410820002F06031DFB2EB001B00A0E305B
:101DF8008A26883130080319052F4D30A3009A3000
:101E0800082F5030A3009A30A400D1278831102F12
:101E18000A3069060319162FA32388310C30690686
:101E2800031D0C2F0A306906031D1D2F3008013CC5
:101E3800B0000C306906031DFB2E3008003E8400FC
:101E480098300318013E850000082100C1002000D9
:101E58000030B0018A268831AB30A3009930A40045
:101E6800D127883140308A2688312330A300993021
:101E7800A400D1278831452F023030020318542F8F
:101E8800B00A30084A3E84009A300318013E8500A3
:101E98000008AF002100400820002F06031D402F36
:101EA8000D308A2688313008031D602F3E30A3008C
:101EB8009A30A400D1278831300B682F4230A30014
:101EC8009A30A400D127883102303006031D772FBD
:101ED8004630A3009A30A400D1278831772F0A30E2
:101EE800690603197D2FA32388310C306906031D69
:101EF800732F0A306906031D862F0330B00A30029B
:101F08000318B0010C306906031D542F30084A3EEF
:101F180084009A300318013E850000082100C000A3
:101F280000308A268831AC30A3009830A400D1272D
:101F3800883140308A2688312330A3009930A400A4
:101F4800D12788310F308A2688310130AF0021002F
:101F58003D0A2000B02FAF35890BAF2F2F089631DF
:101F680089268831BB2F0A3069060319C12FA3239C
:101F780088310C306906031DB72F0A306906031D26
:101F8800CB2F21000330BD0A3D020318BD010C30E0
:101F980020006906031DA62FF72A230884002408B9
:101FA800850012000319080023088400240885000E
:101FB800000810248831A30A0319A40AD12F20305D
:101FC800A100A20122092300910092013F3095054A
:101FD8001514200022082107A00086000130870080
:101FE8002300130881001518F72F20005030A20A8B
:081FF800220203180800E62F85
:10211E00210092121213AB29F11C9A280130F106FC
:10212E0099269031B929C42190315E08013CDE0018
:10213E007C22903109229031B9297118B929F11CEC
:10214E00AA28F110B9295E08013CDE00C4219031A5
:10215E005E08013CDE00F115B9297118B929F11C90
:10216E00C1285108E3005008E2004F08E1004E0874
:10217E00E000C9286308D1006208D0006108CF00D2
:10218E006008CE000230F106B929F118B929031002
:10219E00E41D03140030093DBA00BA0DBA0DBA0D94
:1021AE0064083A06F7393A06E400641EE028013066
:1021BE00E1280030BA00E41DE6280130E72800309F
:1021CE003A060319FD2821002C082000BA00210030
:1021DE002D082000BB00BC01BD013A08E0023B08FF
:1021EE00E13B3C08E23B3D08E33BB92921002C08CA
:1021FE002000E00721002D082000E13D0030E23DE7
:10220E00E33DB929F118B9290310641E03140030F7
:10221E00093DBA00BA0E64083A06EF394229031096
:10222E00641F03140030093DBA00BA0EBA0DBA0D80
:10223E0064083A06BF3942290310E41C0314003027
:10224E00093DBA00BA0D64083A06FD394229031059
:10225E00641C03140030093DBA006406FE3942299D
:10226E000310E41E03140030093DBA00BA0EBA0D75
:10227E0064083A06DF393A06E400B929F118B9299B
:10228E00612290317C229031C42100308E318A2619
:10229E009031D130A3009930A4008F31D1279031E5
:1022AE006A088926C830A3009930A4008F31D1273F
:1022BE00903140308E318A2690315630A3009930BD
:1022CE00A4008F31D12790318B31A32390310D3063
:1022DE00690203186B290A30690203187E296908FE
:1022EE00EA0061229031B2269031092290310C30F1
:1022FE006906031DB92900308E318A269031573078
:10230E00A3009830A4008F31D127903140308E3108
:10231E008A269031CE30A3009830A4008F31D12779
:10232E0090318B31A32390310D3069020318982917
:10233E000A306906031DB929AC229031B929F1186A
:10234E00B929D3269031B92920006908FF3E031C14
:10235E00B92984000C3004020318B92984310435DC
:10236E009A3E82008C31A12490316627F11692128A
:10237E001213210092161217080020006030A801D7
:10238E00A7005E080530031DA800A8070B30A000AB
:10239E006A083E229031A807A90123009518D42976
:1023AE0020002808A300A4012408A600290823025F
:1023BE00A500031CA603230091002000260823007D
:1023CE009200200029082707A30086008701010834
:1023DE00230093003F30950503108B1B03148B13C2
:1023EE00151555309600AA30960095141511031840
:1023FE008B179518002A20000530A90A2902031808
:10240E000800D42920006030A801A7005E0805301E
:10241E00031DA800A8070B30A0006A083E229031C9
:10242E00A807A9012808A300A4012408A6002908CA
:10243E002302A500031CA6032300910020002608FA
:10244E00230092003F309505151420002908270718
:10245E00A300860087012300130881001518352A72
:10246E0020000530A90A290203180800192AA20023
:10247E00A10120082218A107A0352008A218A10743
:10248E00A03520082219A107A0352008A219A107FE
:10249E00A0352008221AA107A0352008A21AA107EC
:1024AE00A0352008221BA107A0352008A21BA107DA
:1024BE002108080023009518612A9101920120003D
:1024CE006A08230093003F30950503108B1B0314FD
:1024DE008B13151555309600AA30960095141511CC
:1024EE0003188B179518792A0800230095187C2A53
:1024FE0020006A08A0000B30A101A200A3018B31BD
:10250E00E523903120080B3EA6000030213DA700A8
:10251E0026082300910020002708230092002000A7
:10252E005E08230093003F30950503108B1B0314A8
:10253E008B13151555309600AA309600951415116B
:10254E0003188B179518A92A0800B90100308E318F
:10255E008A2690316730A3009930A4008F31D1279D
:10256E00903140308E318A269031DF30A300983082
:10257E00A4008F31D127903101308B31DB23903184
:10258E0039088E318A269031D02A0A30690603190D
:10259E00D72A8B31A32390310C306906031DCC2A28
:1025AE000A306906031DE12A0330B90710303902DB
:1025BE000318B9010C306906031DC72A00308B3190
:1025CE00DB2390313908031DF02A8E31912690318C
:1025DE000E2B03303906031DF82A89310221903162
:1025EE000E2B06303906031DFF2A152390310E2BB4
:1025FE0009303906031D072B8D31302590310E2BF6
:10260E000C303906031D0E2B8831862090310F3089
:10261E003906031DAD2ADA248931A82940308E31BE
:10262E008A2690311230A3009930A4008F31D12721
:10263E009031B801B701B70A45308E318A269031F4
:10264E003808892600308E318A26903137080319D2
:10265E00472BE730A3009930A4008F31D12790315A
:10266E003808090709070907243E8600013087004C
:10267E00403FCE00413FCF00423FD000433F5D2B55
:10268E00D930A3009930A4008F31D127903138086A
:10269E00090709070907203E860001308700403FE1
:1026AE00CE00413FCF00423FD000433FD100063025
:1026BE00FC2390315108031D6C2B40304E024230EA
:1026CE004F3B0F30503B031C9A2BC1304E0205304E
:1026DE004F3BD930503B0130513B03189A2B3708F2
:1026EE0003198A2B3808090709070907243E8600B3
:1026FE00013087004E08C03F4F08C13F5008C23F0F
:10270E005108C33F9A2B3808090709070907203ECD
:10271E008600013087004E08C03F4F08C13F500869
:10272E00C23F5108C33FB703370F232B38080907A1
:10273E0009070907243E860001308700403FAF009D
:10274E00413FB000423FB100433FB2003808090795
:10275E0009070907203E8600403FB300413FB40001
:10276E00423FB500433FB60032083602031DC92B67
:10277E0031083502031DC92B30083402031DC92B45
:10278E002F08330238080318EA2B0907090709072F
:10279E00243E860001308700403FAF00413FB0002D
:1027AE00423FB100433FB200380809070907090745
:1027BE00203E86002F08C03F3008C13F3108C23F7F
:1027CE003208C33F3808B80AAF0009302F02031C85
:1027DE00212B00308E318A2690310230A3009830A2
:1027EE00A4008F31D1279031D32FAC008E318A26A1
:1027FE0090315108E8005008E7004F08E6004E08F7
:10280E00E5008C308C3125249031AE01AD012D08C0
:10281E00A03E8600083087018101AD0A2D02031CFF
:10282E000E2C2C088E318A26903101308B31DB2311
:10283E0090318B31A32390310D3069020318202C77
:10284E000C3069060319B22C0A306906031D412C9F
:10285E002E080319412C07302E06031D3B2C2E0883
:10286E00A03E860087018101AE032E08A03E8600A1
:10287E00870181010A30690203184F2C2E08A03EF1
:10288E00860087016908810007302E02031CAE0AFC
:10289E00CE01CF01D001D101AD010A30A000A101BE
:1028AE00A201A3015108A7005008A6004F08A500D9
:1028BE004E08A400B52490312308D1002208D00080
:1028CE002108CF002008CE002D08A03E86008701EB
:1028DE000108CE0701300318CF070318D0070318DD
:1028EE00D1070830AD0A2D02031C542C2C088E3152
:1028FE008A2690315108E8005008E7004F08E6009C
:10290E004E08E5008C308C312524903102302E0299
:10291E000318972C2C082E078E318A269031202CE6
:10292E0005302E020318A22C2C082E07013E8E31E4
:10293E008A269031202C08302E022C080318AD2C3C
:10294E002E07023E8E318A269031202C093E8E3182
:10295E008A269031202C00308B31DB2BA801A90167
:10296E00AA01AB01201CC32C2408A8072508A93DE9
:10297E002608AA3D2708AB3DA435A50DA60DA70D2B
:10298E00A336A20CA10CA00C2308220421042004BF
:10299E00031DB92C2B08A3002A08A2002908A100A8
:1029AE002808A0000800A830A200A3012300951853
:1029BE00DD2C2000A1012308973CA000031CA103DD
:1029CE0023009100200021082300920020002308FC
:1029DE002207A000860087010108230093003F30E4
:1029EE00950503108B1B03148B131515553096008C
:1029FE00AA3096009514151103188B179518052DEE
:102A0E0020001B30A30A230203180800DD2C95308A
:102A1E0021009D0014302000AF00AF032F0A031DCC
:102A2E00142D21009D149D181A2D1B082000B50091
:102A3E0021001C082000B600993021009D001430A2
:102A4E002000B000B003300A031D292D21009D1473
:102A5E009D182F2D1B082000B30021001C082000FC
:102A6E00B400F01FDB2D003036023330031935026F
:102A7E00031CB12D36083402031D472D35083302D1
:102A8E000318B12D33083507A6003408363DA700CC
:102A9E003608A1003508A0003308A0023408A13B77
:102AAE000E30A200A3018B31E52390312108A9003D
:102ABE002008A800462690312708B2002608B1004B
:102ACE004A30A600A7013608A9003508A8004626F8
:102ADE002708AE002608AD0003308E318A269031CD
:102AEE00B501B601003036020D3003193502031858
:102AFE00922D32083602031D862D31083502031839
:102B0E008A2D2D308B2D20308C3110249031B50A2A
:102B1E000319B60A792D43308E318A269031B501CC
:102B2E00B601003036020D300319350203180800C5
:102B3E002E083602031DA52D2D0835020318A92DCA
:102B4E002D30AA2D20308C3110249031B50A031966
:102B5E00B60A982D03308E318A269031B501B60112
:102B6E00003036020D30031935020318C62D203001
:102B7E008C3110249031B50A0319B60AB72D4330A3
:102B8E008E318A269031B501B601003036020D30F5
:102B9E00031935020318080020308C3110249031AF
:102BAE00B50A0319B60ACC2D36085702031DE12DBE
:102BBE00350856020318E72D3608D7003508D6001B
:102BCE0034085502031DED2D330854020318F32D5E
:102BDE003408D5003308D400C930DC0A5C02031C6B
:102BEE00080000305702333003195602031C402EE2
:102BFE0057085502031D052E560854020318402E81
:102C0E005708A7005608A6005408A6025508A73B69
:102C1E0054085607A0005508573DA1000A30A200DF
:102C2E00A3018B31E52390312108A9002008A800CB
:102C3E0046262708B2002608B10049308E318A2672
:102C4E0090310830A3009A30A4008F31D1279031F3
:102C5E000030320264300319310203183A2E310863
:102C6E006B269031402E2E30A3009A30A4008F3167
:102C7E00D127D601D701D401D501DC010800AB0163
:102C8E00AC01260827040319662EAA01AA0AA71B5F
:102C9E00532EA635A70D4D2EAB35AC0D27082902A8
:102CAE00031D5B2E26082802031C622E2608A8028E
:102CBE002708A93B2B14A736A60CAA0B532E2C08BB
:102CCE00A7002B08A6000800A3000830A501A40049
:102CDE003330A507A519752E0330A502A51B792E35
:102CEE003030A502A535A31B2514A335A40B6F2EDA
:102CFE00250E0F3989262E308C311024903125085F
:102D0E000F39892EA0003230A100A103210F8C2E85
:102D1E0006308D008F178F1320358D008F178F1370
:102D2E008D0108006308E8006208E7006108E6000C
:102D3E006008E5005108E3005008E2004F08E1008A
:102D4E004E08E0006808D1006708D0006608CF0082
:102D5E006508CE00080020006A08A0000B30A10113
:102D6E00A200A3018B31E523903120080B3EA60073
:102D7E000030213DA70026082300910020002708DF
:102D8E00230092003F309505151413082000DE0035
:102D9E0023001518CF2E080000308E318A26903170
:102DAE003530A3009830A4008F31D12790314030B8
:102DBE008E318A2690310130A3009930A4008F31D4
:102DCE00D12790310630CE01CF01D001D101FC23A5
:102DDE0090317C229031C4219031B3013308090720
:102DEE0009070907243E860001308700403FAF00E7
:102DFE00413FB000423FB100433FB2005102031DBC
:102E0E00122F31085002031D122F30084F02031DDE
:102E1E00122F2F084E02031C602F330809070907D3
:102E2E000907203E860001308700403FAF00413F3A
:102E3E00B000423FB100433FB20051083202031DC1
:102E4E00322F50083102031D322F4F083002031D5E
:102E5E00322F4E082F02031C602F3308EA00B226D1
:102E6E009031092290315108E3005008E2004F08DA
:102E7E00E1004E08E000612290317C229031C421A5
:102E8E0040308E318A269031D330A3009930A40081
:102E9E008F31D12790316A0889260830A3009830E7
:102EAE00A4008F31D127BC30A0000230A1008B319D
:102EBE00FA2B0A30B30A330203180800F52E20004D
:102ECE006A1C6C2F20008E146E2F20008E10EA1CB0
:102EDE00732F20000E15752F20000E116A1D7A2FEC
:102EEE0020000F147C2F20000F10EA1D812F2000D0
:102EFE008F14832F20008F10641C892F2100421CF9
:102F0E008C2F8F2F2100421C8F2F20000F16912FF8
:102F1E0020000F12641E972F2100421E9A2F9D2F04
:102F2E002100421E9D2F20008C179F2F20008C13F6
:102F3E00E41DA52F2100C21DA82FAB2F2100C21DFD
:102F4E00AB2F20000C17AD2F20000C13E41EB32F57
:102F5E002100421DB62FB92F2100421DB92F20008E
:102F6E000E14BB2F20000E10E41CCA2F2100C21F0E
:102F7E00C22F7119CA2FC218C72F20008F16080032
:102F8E0020008F1208002100C21CD02F20008F16A7
:102F9E00080020008F1208002030A100A20123009B
:102FAE009518D62F200022092300910092012000AF
:102FBE0022082107A00086000130870001082300A7
:102FCE0093003F30950503108B1B03148B131515BF
:102FDE0055309600AA3096009514151103188B17CC
:102FEE009518F72F20005030A20A2202031808006D
:102FFE00D62F5234D234203420342034203420348E
:10300E002034203420342034203420342034203412
:10301E002034203420340034743477346634203431
:10302E0020342034203420342034203420342034F2
:10303E002034203420342034003470347734723409
:10304E0020342034203420342034203420342034D2
:10305E002034203420342034203400344E3465346F
:10306E007734203446342034203420342034203435
:10307E002034203420342034203420340034703472
:10308E007234653420345434583420346F346634FA
:10309E00663420342034203420342034203400345C
:1030AE00533465347434743469346E346734733421
:1030BE002E342E342E342034203420342034203438
:1030CE0000344334573420347334683469346634EE
:1030DE007434203454345834203420342034203482
:1030EE00203400344334723479347334743461349C
:1030FE006C34203443346134703420342034203422
:10310E002034203400345534613464346334203434
:10311E0020342034203476342C342034203473344C
:10312E002034203420340034563461346C3420344E
:10313E0055342034723465346634203420342034CF
:10314E0020347634203420340034463420346F3426
:10315E007534743420346D3475346C34743469348D
:10316E0070346C3479342034203400345634613465
:10317E006C34203473347434653470342034203419
:10318E002034203448347A342034203400344E3401
:10319E0065347834743420342A3420342034203486
:1031AE002034203445345334433420342334003413
:1031BE004E3465347834743420342A342034203438
:1031CE00533465346C3465346334743420342334AE
:1031DE000034203420342034203420342034203461
:1031EE002034203420342034533465347434203465
:1031FE00233400344234733420342A3420342034BF
:10320E002034203420342034203453346534743444
:10321E00203423340034423461346E346434203428
:10322E002034203420342034203420345334653478
:10323E0074342034233400344334683461346E34AF
:10324E006734653420342A34203420342034533407
:10325E006534743420342334003445347334633489
:10326E0020342A34203420342034203420344E3478
:10327E006534783474342034233400344334683461
:10328E0061346E346734653420342A34203420346B
:10329E004E34653478347434203423340034453459
:1032AE007334633420342A342034203420342034D0
:1032BE004E3465347734203430342D343934003480
:1032CE004634203456346C346334203442344C3417
:1032DE00203449346F34203453346D342034513417
:1032EE000034533465347434203470346F34723493
:1032FE007434733420346C346534763465346C3401
:10330E007334003461347434743420347034723451
:10331E006534203466346C3474342034633477343A
:10332E0020347534003443345734203473346834C5
:10333E0069346634743420342034203420342034FC
:10334E00203448347A3400345334693435343334C9
:10335E00353431346134203461346434643472343D
:10336E002034203420340034543458342034203463
:10337E00203420342034203420342034203420349F
:10338E00003420347334613476346534643420343C
:10339E002034003420342034423461346E346434AA
:1033AE00203400345534703420342034203420340A
:1033BE00003458344F342034463420342034003412
:1033CE0044346F3477346E34203420340034203457
:1033DE0020345234583420340034203448342034CD
:1033EE002034003420344C342034203400346634FD
:1033FE003D34463420340034703472346534203415
:10340E0000347334773472342034003472346934B7
:10341E0074342034003478346934743420340034F5
:10342E00613474347434203400342034733473347F
:10343E006234003420342034633477340034203442
:10344E0048342034003420344C34203400343E349C
:10345E003134303400342B343634303400344F347D
:10346E0046344634003420344F344E34003436342F
:10347E003034683400343634323468340034363400
:10348E00463468340034C034C434DE3448344934ED
:10349E0000344C344F34003420346C3400342E3429
:1034AE006C3400342E34753400342B3400344834EC
:0634BE0000344C34003420
:020000040001F9
:04000E0004EEFFDE1F
:10E000000000000000001B0077004000000000003E
:10E010001B00770040000000000000003500670092
:10E02000E0000000000035006700E0000000000094
:10E0300000006A00CF00C000000000006A00CF00AE
:10E04000C0000000100000009A001D002000100019
:10E0500000009A001D002000000010000000D50004
:10E060009F00800010000000D5009F00800000008D
:10E070001000010013006B00D0001000010013001D
:10E080006B00D00000001000010040006F00400055
:10E090001000010040006F0040000000100001006F
:10E0A0007B00CA009000100001007B00CA009000B5
:10E0B000000010000100AB003F0000001000010054
:10E0C000AB003F0000000000000000000F00420015
:10E0D0004000000000000F00420040000000FF0070
:10E0E000FF00FF00FF00FF00FF00FF00FF00FF0038
:10E0F000FF00FF00FF00FF00FF002C005200C000E7
:10E100000A000A000200C200B900B200AE00AB0073
:10E11000A800A600A500A300A200A0009E009B00EE
:10E120009A0099000200580001008C00BA0080009B
:10E13000FF00FF00FF00FF00FF00FF00FF00FF00E7
:10E14000FF00FF00FF00FF00FF00FF00FF00FF00D7
:10E15000FF00FF00FF00FF00FF00FF00FF00FF00C7
:10E16000000000002E00E0000100C900D7000800F8
:10E170000100AB003B0018000100C500330088001F
:10E1800001007B00C600A80001007D0055001800BA
:10E19000010040006B005800010047005000F800EB
:10E1A000010013006700E80001001500440078003A
:10E1B0000000D5009B0098000000DA00FA009800EB
:10E1C00000009A001900380000009A00E40058008E
:10E1D00000006A00CB00D80000006D00E000E800FD
:10E1E000000035006300F80000003900FF00A800BF
:10E1F00000001B007300580000001E00880068002B
:00000001FF
